{
  "contractName": "ProjectManagement",
  "abi": [
    {
      "inputs": [],
      "stateMutability": "nonpayable",
      "type": "constructor"
    },
    {
      "anonymous": false,
      "inputs": [
        {
          "indexed": true,
          "internalType": "address",
          "name": "member",
          "type": "address"
        }
      ],
      "name": "MemberAdded",
      "type": "event"
    },
    {
      "anonymous": false,
      "inputs": [
        {
          "indexed": true,
          "internalType": "address",
          "name": "recipient",
          "type": "address"
        },
        {
          "indexed": false,
          "internalType": "uint256",
          "name": "fragments",
          "type": "uint256"
        }
      ],
      "name": "RewardClaimed",
      "type": "event"
    },
    {
      "anonymous": false,
      "inputs": [
        {
          "indexed": true,
          "internalType": "uint256",
          "name": "taskId",
          "type": "uint256"
        }
      ],
      "name": "TaskApprovalRequested",
      "type": "event"
    },
    {
      "anonymous": false,
      "inputs": [
        {
          "indexed": true,
          "internalType": "uint256",
          "name": "taskId",
          "type": "uint256"
        }
      ],
      "name": "TaskApproved",
      "type": "event"
    },
    {
      "anonymous": false,
      "inputs": [
        {
          "indexed": true,
          "internalType": "uint256",
          "name": "taskId",
          "type": "uint256"
        },
        {
          "indexed": false,
          "internalType": "string",
          "name": "taskName",
          "type": "string"
        }
      ],
      "name": "TaskCompleted",
      "type": "event"
    },
    {
      "anonymous": false,
      "inputs": [
        {
          "indexed": true,
          "internalType": "uint256",
          "name": "taskId",
          "type": "uint256"
        },
        {
          "indexed": false,
          "internalType": "string",
          "name": "taskName",
          "type": "string"
        },
        {
          "indexed": true,
          "internalType": "address[]",
          "name": "assignedTo",
          "type": "address[]"
        },
        {
          "indexed": false,
          "internalType": "uint8",
          "name": "difficultyLevel",
          "type": "uint8"
        }
      ],
      "name": "TaskCreated",
      "type": "event"
    },
    {
      "anonymous": false,
      "inputs": [
        {
          "indexed": true,
          "internalType": "uint256",
          "name": "taskId",
          "type": "uint256"
        }
      ],
      "name": "TaskDeleted",
      "type": "event"
    },
    {
      "inputs": [
        {
          "internalType": "uint256",
          "name": "",
          "type": "uint256"
        }
      ],
      "name": "memberAddresses",
      "outputs": [
        {
          "internalType": "address",
          "name": "",
          "type": "address"
        }
      ],
      "stateMutability": "view",
      "type": "function",
      "constant": true
    },
    {
      "inputs": [],
      "name": "memberCount",
      "outputs": [
        {
          "internalType": "uint256",
          "name": "",
          "type": "uint256"
        }
      ],
      "stateMutability": "view",
      "type": "function",
      "constant": true
    },
    {
      "inputs": [
        {
          "internalType": "address",
          "name": "",
          "type": "address"
        }
      ],
      "name": "projectMembers",
      "outputs": [
        {
          "internalType": "bool",
          "name": "exists",
          "type": "bool"
        },
        {
          "internalType": "string",
          "name": "memberName",
          "type": "string"
        },
        {
          "internalType": "uint256",
          "name": "fragmentsEarned",
          "type": "uint256"
        }
      ],
      "stateMutability": "view",
      "type": "function",
      "constant": true
    },
    {
      "inputs": [],
      "name": "projectNFT",
      "outputs": [
        {
          "internalType": "uint256",
          "name": "nftId",
          "type": "uint256"
        },
        {
          "internalType": "string",
          "name": "nftName",
          "type": "string"
        },
        {
          "internalType": "uint256",
          "name": "totalFragmentsAwarded",
          "type": "uint256"
        }
      ],
      "stateMutability": "view",
      "type": "function",
      "constant": true
    },
    {
      "inputs": [],
      "name": "projectOwner",
      "outputs": [
        {
          "internalType": "address",
          "name": "",
          "type": "address"
        }
      ],
      "stateMutability": "view",
      "type": "function",
      "constant": true
    },
    {
      "inputs": [],
      "name": "taskCount",
      "outputs": [
        {
          "internalType": "uint256",
          "name": "",
          "type": "uint256"
        }
      ],
      "stateMutability": "view",
      "type": "function",
      "constant": true
    },
    {
      "inputs": [
        {
          "internalType": "uint256",
          "name": "",
          "type": "uint256"
        }
      ],
      "name": "tasks",
      "outputs": [
        {
          "internalType": "uint256",
          "name": "taskId",
          "type": "uint256"
        },
        {
          "internalType": "string",
          "name": "taskName",
          "type": "string"
        },
        {
          "internalType": "bool",
          "name": "completed",
          "type": "bool"
        },
        {
          "internalType": "bool",
          "name": "approvalRequested",
          "type": "bool"
        },
        {
          "internalType": "uint8",
          "name": "difficultyLevel",
          "type": "uint8"
        }
      ],
      "stateMutability": "view",
      "type": "function",
      "constant": true
    },
    {
      "inputs": [
        {
          "internalType": "address",
          "name": "_member",
          "type": "address"
        },
        {
          "internalType": "string",
          "name": "_memberName",
          "type": "string"
        }
      ],
      "name": "addProjectMember",
      "outputs": [],
      "stateMutability": "nonpayable",
      "type": "function"
    },
    {
      "inputs": [
        {
          "internalType": "string",
          "name": "_taskName",
          "type": "string"
        },
        {
          "internalType": "address[]",
          "name": "_assignedTo",
          "type": "address[]"
        },
        {
          "internalType": "uint8",
          "name": "_difficultyLevel",
          "type": "uint8"
        }
      ],
      "name": "createTask",
      "outputs": [],
      "stateMutability": "nonpayable",
      "type": "function"
    },
    {
      "inputs": [
        {
          "internalType": "uint256",
          "name": "_taskId",
          "type": "uint256"
        }
      ],
      "name": "requestTaskCompletion",
      "outputs": [],
      "stateMutability": "nonpayable",
      "type": "function"
    },
    {
      "inputs": [
        {
          "internalType": "uint256",
          "name": "_taskId",
          "type": "uint256"
        }
      ],
      "name": "approveTaskCompletion",
      "outputs": [],
      "stateMutability": "nonpayable",
      "type": "function"
    },
    {
      "inputs": [
        {
          "internalType": "uint256",
          "name": "_taskId",
          "type": "uint256"
        }
      ],
      "name": "deleteTask",
      "outputs": [],
      "stateMutability": "nonpayable",
      "type": "function"
    },
    {
      "inputs": [],
      "name": "getTotalFragments",
      "outputs": [
        {
          "internalType": "uint256",
          "name": "",
          "type": "uint256"
        }
      ],
      "stateMutability": "view",
      "type": "function",
      "constant": true
    },
    {
      "inputs": [
        {
          "internalType": "address",
          "name": "_user",
          "type": "address"
        }
      ],
      "name": "getOwnedFragments",
      "outputs": [
        {
          "internalType": "uint256",
          "name": "",
          "type": "uint256"
        }
      ],
      "stateMutability": "view",
      "type": "function",
      "constant": true
    },
    {
      "inputs": [],
      "name": "getCompletedTasks",
      "outputs": [
        {
          "internalType": "uint256[]",
          "name": "",
          "type": "uint256[]"
        }
      ],
      "stateMutability": "view",
      "type": "function",
      "constant": true
    },
    {
      "inputs": [],
      "name": "getPendingTasks",
      "outputs": [
        {
          "internalType": "uint256[]",
          "name": "",
          "type": "uint256[]"
        }
      ],
      "stateMutability": "view",
      "type": "function",
      "constant": true
    }
  ],
  "bytecode": "0x60806040523480156200001157600080fd5b5033600160006101000a81548173ffffffffffffffffffffffffffffffffffffffff021916908373ffffffffffffffffffffffffffffffffffffffff16021790555060016006600001819055506040518060400160405280600b81526020017f50726f6a656374204e465400000000000000000000000000000000000000000081525060066001019081620000a7919062000620565b5062000111600160009054906101000a900473ffffffffffffffffffffffffffffffffffffffff166040518060400160405280600581526020017f4f776e65720000000000000000000000000000000000000000000000000000008152506200011760201b60201c565b620008ae565b600160009054906101000a900473ffffffffffffffffffffffffffffffffffffffff1673ffffffffffffffffffffffffffffffffffffffff163373ffffffffffffffffffffffffffffffffffffffff1614620001aa576040517f08c379a0000000000000000000000000000000000000000000000000000000008152600401620001a1906200078e565b60405180910390fd5b600560008373ffffffffffffffffffffffffffffffffffffffff1673ffffffffffffffffffffffffffffffffffffffff16815260200190815260200160002060000160009054906101000a900460ff16156200023d576040517f08c379a0000000000000000000000000000000000000000000000000000000008152600401620002349062000800565b60405180910390fd5b60405180606001604052806001151581526020018281526020016000815250600560008473ffffffffffffffffffffffffffffffffffffffff1673ffffffffffffffffffffffffffffffffffffffff16815260200190815260200160002060008201518160000160006101000a81548160ff0219169083151502179055506020820151816001019081620002d2919062000620565b50604082015181600201559050506003829080600181540180825580915050600190039060005260206000200160009091909190916101000a81548173ffffffffffffffffffffffffffffffffffffffff021916908373ffffffffffffffffffffffffffffffffffffffff16021790555060016002600082825462000358919062000851565b925050819055508173ffffffffffffffffffffffffffffffffffffffff167fb251eb052afc73ffd02ffe85ad79990a8b3fed60d76dbc2fa2fdd7123dffd91460405160405180910390a25050565b600081519050919050565b7f4e487b7100000000000000000000000000000000000000000000000000000000600052604160045260246000fd5b7f4e487b7100000000000000000000000000000000000000000000000000000000600052602260045260246000fd5b600060028204905060018216806200042857607f821691505b6020821081036200043e576200043d620003e0565b5b50919050565b60008190508160005260206000209050919050565b60006020601f8301049050919050565b600082821b905092915050565b600060088302620004a87fffffffffffffffffffffffffffffffffffffffffffffffffffffffffffffffff8262000469565b620004b4868362000469565b95508019841693508086168417925050509392505050565b6000819050919050565b6000819050919050565b600062000501620004fb620004f584620004cc565b620004d6565b620004cc565b9050919050565b6000819050919050565b6200051d83620004e0565b620005356200052c8262000508565b84845462000476565b825550505050565b600090565b6200054c6200053d565b6200055981848462000512565b505050565b5b8181101562000581576200057560008262000542565b6001810190506200055f565b5050565b601f821115620005d0576200059a8162000444565b620005a58462000459565b81016020851015620005b5578190505b620005cd620005c48562000459565b8301826200055e565b50505b505050565b600082821c905092915050565b6000620005f560001984600802620005d5565b1980831691505092915050565b6000620006108383620005e2565b9150826002028217905092915050565b6200062b82620003a6565b67ffffffffffffffff811115620006475762000646620003b1565b5b6200065382546200040f565b6200066082828562000585565b600060209050601f83116001811462000698576000841562000683578287015190505b6200068f858262000602565b865550620006ff565b601f198416620006a88662000444565b60005b82811015620006d257848901518255600182019150602085019450602081019050620006ab565b86831015620006f25784890151620006ee601f891682620005e2565b8355505b6001600288020188555050505b505050505050565b600082825260208201905092915050565b7f4f6e6c79207468652070726f6a656374206f776e65722063616e20706572666f60008201527f726d207468697320616374696f6e000000000000000000000000000000000000602082015250565b600062000776602e8362000707565b9150620007838262000718565b604082019050919050565b60006020820190508181036000830152620007a98162000767565b9050919050565b7f4d656d62657220616c7265616479206578697374730000000000000000000000600082015250565b6000620007e860158362000707565b9150620007f582620007b0565b602082019050919050565b600060208201905081810360008301526200081b81620007d9565b9050919050565b7f4e487b7100000000000000000000000000000000000000000000000000000000600052601160045260246000fd5b60006200085e82620004cc565b91506200086b83620004cc565b9250827fffffffffffffffffffffffffffffffffffffffffffffffffffffffffffffffff03821115620008a357620008a262000822565b5b828201905092915050565b6129ca80620008be6000396000f3fe608060405234801561001057600080fd5b50600436106101005760003560e01c8063a2fd691711610097578063c35b903011610066578063c35b9030146102a5578063c766a666146102c3578063cc4e6299146102df578063d61d6c0f1461030f57610100565b8063a2fd69171461022d578063a4475ce41461024d578063acc8d4fe1461026b578063b6cb58a51461028757610100565b80636c830f4b116100d35780636c830f4b1461018d5780637484bed6146101ab57806380195fca146101db5780638d977672146101f957610100565b806311aee380146101055780632127fd9314610123578063560f31921461015557806362d3c7ba14610171575b600080fd5b61010d61032b565b60405161011a91906116c5565b60405180910390f35b61013d60048036038101906101389190611752565b610331565b60405161014c93929190611833565b60405180910390f35b61016f600480360381019061016a919061189d565b6103f0565b005b61018b60048036038101906101869190611b00565b610589565b005b610195610774565b6040516101a29190611c49565b60405180910390f35b6101c560048036038101906101c09190611752565b610862565b6040516101d291906116c5565b60405180910390f35b6101e36108ae565b6040516101f091906116c5565b60405180910390f35b610213600480360381019061020e919061189d565b6108bb565b604051610224959493929190611c7a565b60405180910390f35b6102356109a0565b60405161024493929190611cd4565b60405180910390f35b610255610a40565b6040516102629190611d21565b60405180910390f35b6102856004803603810190610280919061189d565b610a66565b005b61028f610d16565b60405161029c91906116c5565b60405180910390f35b6102ad610d1c565b6040516102ba9190611c49565b60405180910390f35b6102dd60048036038101906102d89190611d3c565b610e09565b005b6102f960048036038101906102f4919061189d565b61108e565b6040516103069190611d21565b60405180910390f35b6103296004803603810190610324919061189d565b6110cd565b005b60025481565b60056020528060005260406000206000915090508060000160009054906101000a900460ff169080600101805461036790611dc7565b80601f016020809104026020016040519081016040528092919081815260200182805461039390611dc7565b80156103e05780601f106103b5576101008083540402835291602001916103e0565b820191906000526020600020905b8154815290600101906020018083116103c357829003601f168201915b5050505050908060020154905083565b600160009054906101000a900473ffffffffffffffffffffffffffffffffffffffff1673ffffffffffffffffffffffffffffffffffffffff163373ffffffffffffffffffffffffffffffffffffffff1614610480576040517f08c379a000000000000000000000000000000000000000000000000000000000815260040161047790611e6a565b60405180910390fd5b600060046000838152602001908152602001600020905060008160000154036104de576040517f08c379a00000000000000000000000000000000000000000000000000000000081526004016104d590611ed6565b60405180910390fd5b6004600083815260200190815260200160002060008082016000905560018201600061050a91906115a4565b60028201600061051a91906115e4565b6003820160006101000a81549060ff02191690556003820160016101000a81549060ff02191690556003820160026101000a81549060ff02191690555050817fd078b251d950cc55c44340be1db732337ef4939a76e1367ee271ad2cb19c46af60405160405180910390a25050565b600160009054906101000a900473ffffffffffffffffffffffffffffffffffffffff1673ffffffffffffffffffffffffffffffffffffffff163373ffffffffffffffffffffffffffffffffffffffff1614610619576040517f08c379a000000000000000000000000000000000000000000000000000000000815260040161061090611e6a565b60405180910390fd5b60008081548092919061062b90611f25565b91905055506040518060c0016040528060005481526020018481526020018381526020016000151581526020016000151581526020018260ff16815250600460008054815260200190815260200160002060008201518160000155602082015181600101908161069b9190612119565b5060408201518160020190805190602001906106b8929190611605565b5060608201518160030160006101000a81548160ff02191690831515021790555060808201518160030160016101000a81548160ff02191690831515021790555060a08201518160030160026101000a81548160ff021916908360ff1602179055509050508160405161072b91906122a3565b60405180910390206000547f04e80ce68755d6acb3d694d6fb429a92e07bebb64d074d014684fa024b2acea185846040516107679291906122ba565b60405180910390a3505050565b60606000805467ffffffffffffffff811115610793576107926118d4565b5b6040519080825280602002602001820160405280156107c15781602001602082028036833780820191505090505b509050600080600190505b6000548111610856576004600082815260200190815260200160002060030160009054906101000a900460ff1615610843576004600082815260200190815260200160002060000154838381518110610828576108276122ea565b5b602002602001018181525050818061083f90611f25565b9250505b808061084e90611f25565b9150506107cc565b50808252819250505090565b6000600560008373ffffffffffffffffffffffffffffffffffffffff1673ffffffffffffffffffffffffffffffffffffffff168152602001908152602001600020600201549050919050565b6000600660020154905090565b60046020528060005260406000206000915090508060000154908060010180546108e490611dc7565b80601f016020809104026020016040519081016040528092919081815260200182805461091090611dc7565b801561095d5780601f106109325761010080835404028352916020019161095d565b820191906000526020600020905b81548152906001019060200180831161094057829003601f168201915b5050505050908060030160009054906101000a900460ff16908060030160019054906101000a900460ff16908060030160029054906101000a900460ff16905085565b60068060000154908060010180546109b790611dc7565b80601f01602080910402602001604051908101604052809291908181526020018280546109e390611dc7565b8015610a305780601f10610a0557610100808354040283529160200191610a30565b820191906000526020600020905b815481529060010190602001808311610a1357829003601f168201915b5050505050908060020154905083565b600160009054906101000a900473ffffffffffffffffffffffffffffffffffffffff1681565b600560003373ffffffffffffffffffffffffffffffffffffffff1673ffffffffffffffffffffffffffffffffffffffff16815260200190815260200160002060000160009054906101000a900460ff16610af5576040517f08c379a0000000000000000000000000000000000000000000000000000000008152600401610aec9061238b565b60405180910390fd5b60006004600083815260200190815260200160002090506000816000015403610b53576040517f08c379a0000000000000000000000000000000000000000000000000000000008152600401610b4a90611ed6565b60405180910390fd5b610be581600201805480602002602001604051908101604052809291908181526020018280548015610bda57602002820191906000526020600020905b8160009054906101000a900473ffffffffffffffffffffffffffffffffffffffff1673ffffffffffffffffffffffffffffffffffffffff1681526020019060010190808311610b90575b5050505050336113a4565b610c24576040517f08c379a0000000000000000000000000000000000000000000000000000000008152600401610c1b9061241d565b60405180910390fd5b8060030160009054906101000a900460ff1615610c76576040517f08c379a0000000000000000000000000000000000000000000000000000000008152600401610c6d90612489565b60405180910390fd5b8060030160019054906101000a900460ff1615610cc8576040517f08c379a0000000000000000000000000000000000000000000000000000000008152600401610cbf9061251b565b60405180910390fd5b60018160030160016101000a81548160ff021916908315150217905550817fc4cf761fd63c11408ed8de43ecb8479c12cc5b54ae63d9245fda4660980e84f360405160405180910390a25050565b60005481565b60606000805467ffffffffffffffff811115610d3b57610d3a6118d4565b5b604051908082528060200260200182016040528015610d695781602001602082028036833780820191505090505b509050600080600190505b6000548111610dfd576004600082815260200190815260200160002060030160009054906101000a900460ff16610dea576004600082815260200190815260200160002060000154838381518110610dcf57610dce6122ea565b5b6020026020010181815250508180610de690611f25565b9250505b8080610df590611f25565b915050610d74565b50808252819250505090565b600160009054906101000a900473ffffffffffffffffffffffffffffffffffffffff1673ffffffffffffffffffffffffffffffffffffffff163373ffffffffffffffffffffffffffffffffffffffff1614610e99576040517f08c379a0000000000000000000000000000000000000000000000000000000008152600401610e9090611e6a565b60405180910390fd5b600560008373ffffffffffffffffffffffffffffffffffffffff1673ffffffffffffffffffffffffffffffffffffffff16815260200190815260200160002060000160009054906101000a900460ff1615610f29576040517f08c379a0000000000000000000000000000000000000000000000000000000008152600401610f2090612587565b60405180910390fd5b60405180606001604052806001151581526020018281526020016000815250600560008473ffffffffffffffffffffffffffffffffffffffff1673ffffffffffffffffffffffffffffffffffffffff16815260200190815260200160002060008201518160000160006101000a81548160ff0219169083151502179055506020820151816001019081610fbc9190612119565b50604082015181600201559050506003829080600181540180825580915050600190039060005260206000200160009091909190916101000a81548173ffffffffffffffffffffffffffffffffffffffff021916908373ffffffffffffffffffffffffffffffffffffffff16021790555060016002600082825461104091906125a7565b925050819055508173ffffffffffffffffffffffffffffffffffffffff167fb251eb052afc73ffd02ffe85ad79990a8b3fed60d76dbc2fa2fdd7123dffd91460405160405180910390a25050565b6003818154811061109e57600080fd5b906000526020600020016000915054906101000a900473ffffffffffffffffffffffffffffffffffffffff1681565b600160009054906101000a900473ffffffffffffffffffffffffffffffffffffffff1673ffffffffffffffffffffffffffffffffffffffff163373ffffffffffffffffffffffffffffffffffffffff161461115d576040517f08c379a000000000000000000000000000000000000000000000000000000000815260040161115490611e6a565b60405180910390fd5b600060046000838152602001908152602001600020905060008160000154036111bb576040517f08c379a00000000000000000000000000000000000000000000000000000000081526004016111b290611ed6565b60405180910390fd5b8060030160019054906101000a900460ff1661120c576040517f08c379a00000000000000000000000000000000000000000000000000000000081526004016112039061266f565b60405180910390fd5b8060030160009054906101000a900460ff161561125e576040517f08c379a000000000000000000000000000000000000000000000000000000000815260040161125590612489565b60405180910390fd5b60018160030160006101000a81548160ff02191690831515021790555060008160030160016101000a81548160ff021916908315150217905550817f7e6ffc29fe63759579d96a0457a8f2e08339aca345bd469f59dc2e61f82a5aeb826001016040516112cb9190612713565b60405180910390a260006112ef8260030160029054906101000a900460ff1661142b565b90506113838260020180548060200260200160405190810160405280929190818152602001828054801561137857602002820191906000526020600020905b8160009054906101000a900473ffffffffffffffffffffffffffffffffffffffff1673ffffffffffffffffffffffffffffffffffffffff168152602001906001019080831161132e575b5050505050826114a7565b806006600201600082825461139891906125a7565b92505081905550505050565b600080600090505b835181101561141f578273ffffffffffffffffffffffffffffffffffffffff168482815181106113df576113de6122ea565b5b602002602001015173ffffffffffffffffffffffffffffffffffffffff160361140c576001915050611425565b808061141790611f25565b9150506113ac565b50600090505b92915050565b600060018260ff1610158015611445575060058260ff1611155b611484576040517f08c379a000000000000000000000000000000000000000000000000000000000815260040161147b90612781565b60405180910390fd5b600260018361149391906127a1565b61149d9190612908565b60ff169050919050565b60008251826114b69190612963565b905060005b835181101561159e5760008482815181106114d9576114d86122ea565b5b6020026020010151905082600560008373ffffffffffffffffffffffffffffffffffffffff1673ffffffffffffffffffffffffffffffffffffffff168152602001908152602001600020600201600082825461153591906125a7565b925050819055508073ffffffffffffffffffffffffffffffffffffffff167f106f923f993c2149d49b4255ff723acafa1f2d94393f561d3eda32ae348f72418460405161158291906116c5565b60405180910390a250808061159690611f25565b9150506114bb565b50505050565b5080546115b090611dc7565b6000825580601f106115c257506115e1565b601f0160209004906000526020600020908101906115e0919061168f565b5b50565b5080546000825590600052602060002090810190611602919061168f565b50565b82805482825590600052602060002090810192821561167e579160200282015b8281111561167d5782518260006101000a81548173ffffffffffffffffffffffffffffffffffffffff021916908373ffffffffffffffffffffffffffffffffffffffff16021790555091602001919060010190611625565b5b50905061168b919061168f565b5090565b5b808211156116a8576000816000905550600101611690565b5090565b6000819050919050565b6116bf816116ac565b82525050565b60006020820190506116da60008301846116b6565b92915050565b6000604051905090565b600080fd5b600080fd5b600073ffffffffffffffffffffffffffffffffffffffff82169050919050565b600061171f826116f4565b9050919050565b61172f81611714565b811461173a57600080fd5b50565b60008135905061174c81611726565b92915050565b600060208284031215611768576117676116ea565b5b60006117768482850161173d565b91505092915050565b60008115159050919050565b6117948161177f565b82525050565b600081519050919050565b600082825260208201905092915050565b60005b838110156117d45780820151818401526020810190506117b9565b838111156117e3576000848401525b50505050565b6000601f19601f8301169050919050565b60006118058261179a565b61180f81856117a5565b935061181f8185602086016117b6565b611828816117e9565b840191505092915050565b6000606082019050611848600083018661178b565b818103602083015261185a81856117fa565b905061186960408301846116b6565b949350505050565b61187a816116ac565b811461188557600080fd5b50565b60008135905061189781611871565b92915050565b6000602082840312156118b3576118b26116ea565b5b60006118c184828501611888565b91505092915050565b600080fd5b600080fd5b7f4e487b7100000000000000000000000000000000000000000000000000000000600052604160045260246000fd5b61190c826117e9565b810181811067ffffffffffffffff8211171561192b5761192a6118d4565b5b80604052505050565b600061193e6116e0565b905061194a8282611903565b919050565b600067ffffffffffffffff82111561196a576119696118d4565b5b611973826117e9565b9050602081019050919050565b82818337600083830152505050565b60006119a261199d8461194f565b611934565b9050828152602081018484840111156119be576119bd6118cf565b5b6119c9848285611980565b509392505050565b600082601f8301126119e6576119e56118ca565b5b81356119f684826020860161198f565b91505092915050565b600067ffffffffffffffff821115611a1a57611a196118d4565b5b602082029050602081019050919050565b600080fd5b6000611a43611a3e846119ff565b611934565b90508083825260208201905060208402830185811115611a6657611a65611a2b565b5b835b81811015611a8f5780611a7b888261173d565b845260208401935050602081019050611a68565b5050509392505050565b600082601f830112611aae57611aad6118ca565b5b8135611abe848260208601611a30565b91505092915050565b600060ff82169050919050565b611add81611ac7565b8114611ae857600080fd5b50565b600081359050611afa81611ad4565b92915050565b600080600060608486031215611b1957611b186116ea565b5b600084013567ffffffffffffffff811115611b3757611b366116ef565b5b611b43868287016119d1565b935050602084013567ffffffffffffffff811115611b6457611b636116ef565b5b611b7086828701611a99565b9250506040611b8186828701611aeb565b9150509250925092565b600081519050919050565b600082825260208201905092915050565b6000819050602082019050919050565b611bc0816116ac565b82525050565b6000611bd28383611bb7565b60208301905092915050565b6000602082019050919050565b6000611bf682611b8b565b611c008185611b96565b9350611c0b83611ba7565b8060005b83811015611c3c578151611c238882611bc6565b9750611c2e83611bde565b925050600181019050611c0f565b5085935050505092915050565b60006020820190508181036000830152611c638184611beb565b905092915050565b611c7481611ac7565b82525050565b600060a082019050611c8f60008301886116b6565b8181036020830152611ca181876117fa565b9050611cb0604083018661178b565b611cbd606083018561178b565b611cca6080830184611c6b565b9695505050505050565b6000606082019050611ce960008301866116b6565b8181036020830152611cfb81856117fa565b9050611d0a60408301846116b6565b949350505050565b611d1b81611714565b82525050565b6000602082019050611d366000830184611d12565b92915050565b60008060408385031215611d5357611d526116ea565b5b6000611d618582860161173d565b925050602083013567ffffffffffffffff811115611d8257611d816116ef565b5b611d8e858286016119d1565b9150509250929050565b7f4e487b7100000000000000000000000000000000000000000000000000000000600052602260045260246000fd5b60006002820490506001821680611ddf57607f821691505b602082108103611df257611df1611d98565b5b50919050565b7f4f6e6c79207468652070726f6a656374206f776e65722063616e20706572666f60008201527f726d207468697320616374696f6e000000000000000000000000000000000000602082015250565b6000611e54602e836117a5565b9150611e5f82611df8565b604082019050919050565b60006020820190508181036000830152611e8381611e47565b9050919050565b7f5461736b20646f6573206e6f7420657869737400000000000000000000000000600082015250565b6000611ec06013836117a5565b9150611ecb82611e8a565b602082019050919050565b60006020820190508181036000830152611eef81611eb3565b9050919050565b7f4e487b7100000000000000000000000000000000000000000000000000000000600052601160045260246000fd5b6000611f30826116ac565b91507fffffffffffffffffffffffffffffffffffffffffffffffffffffffffffffffff8203611f6257611f61611ef6565b5b600182019050919050565b60008190508160005260206000209050919050565b60006020601f8301049050919050565b600082821b905092915050565b600060088302611fcf7fffffffffffffffffffffffffffffffffffffffffffffffffffffffffffffffff82611f92565b611fd98683611f92565b95508019841693508086168417925050509392505050565b6000819050919050565b600061201661201161200c846116ac565b611ff1565b6116ac565b9050919050565b6000819050919050565b61203083611ffb565b61204461203c8261201d565b848454611f9f565b825550505050565b600090565b61205961204c565b612064818484612027565b505050565b5b818110156120885761207d600082612051565b60018101905061206a565b5050565b601f8211156120cd5761209e81611f6d565b6120a784611f82565b810160208510156120b6578190505b6120ca6120c285611f82565b830182612069565b50505b505050565b600082821c905092915050565b60006120f0600019846008026120d2565b1980831691505092915050565b600061210983836120df565b9150826002028217905092915050565b6121228261179a565b67ffffffffffffffff81111561213b5761213a6118d4565b5b6121458254611dc7565b61215082828561208c565b600060209050601f8311600181146121835760008415612171578287015190505b61217b85826120fd565b8655506121e3565b601f19841661219186611f6d565b60005b828110156121b957848901518255600182019150602085019450602081019050612194565b868310156121d657848901516121d2601f8916826120df565b8355505b6001600288020188555050505b505050505050565b600081519050919050565b600081905092915050565b6000819050602082019050919050565b61221a81611714565b82525050565b600061222c8383612211565b60208301905092915050565b6000602082019050919050565b6000612250826121eb565b61225a81856121f6565b935061226583612201565b8060005b8381101561229657815161227d8882612220565b975061228883612238565b925050600181019050612269565b5085935050505092915050565b60006122af8284612245565b915081905092915050565b600060408201905081810360008301526122d481856117fa565b90506122e36020830184611c6b565b9392505050565b7f4e487b7100000000000000000000000000000000000000000000000000000000600052603260045260246000fd5b7f4f6e6c792070726f6a656374206d656d626572732063616e20706572666f726d60008201527f207468697320616374696f6e0000000000000000000000000000000000000000602082015250565b6000612375602c836117a5565b915061238082612319565b604082019050919050565b600060208201905081810360008301526123a481612368565b9050919050565b7f596f7520617265206e6f742061737369676e656420746f20746869732074617360008201527f6b00000000000000000000000000000000000000000000000000000000000000602082015250565b60006124076021836117a5565b9150612412826123ab565b604082019050919050565b60006020820190508181036000830152612436816123fa565b9050919050565b7f5461736b20697320616c726561647920636f6d706c6574656400000000000000600082015250565b60006124736019836117a5565b915061247e8261243d565b602082019050919050565b600060208201905081810360008301526124a281612466565b9050919050565b7f417070726f76616c20666f72207461736b20636f6d706c6574696f6e2068617360008201527f20616c7265616479206265656e20726571756573746564000000000000000000602082015250565b60006125056037836117a5565b9150612510826124a9565b604082019050919050565b60006020820190508181036000830152612534816124f8565b9050919050565b7f4d656d62657220616c7265616479206578697374730000000000000000000000600082015250565b60006125716015836117a5565b915061257c8261253b565b602082019050919050565b600060208201905081810360008301526125a081612564565b9050919050565b60006125b2826116ac565b91506125bd836116ac565b9250827fffffffffffffffffffffffffffffffffffffffffffffffffffffffffffffffff038211156125f2576125f1611ef6565b5b828201905092915050565b7f5461736b20636f6d706c6574696f6e20686173206e6f74206265656e2072657160008201527f7565737465640000000000000000000000000000000000000000000000000000602082015250565b60006126596026836117a5565b9150612664826125fd565b604082019050919050565b600060208201905081810360008301526126888161264c565b9050919050565b6000815461269c81611dc7565b6126a681866117a5565b945060018216600081146126c157600181146126d75761270a565b60ff19831686528115156020028601935061270a565b6126e085611f6d565b60005b83811015612702578154818901526001820191506020810190506126e3565b808801955050505b50505092915050565b6000602082019050818103600083015261272d818461268f565b905092915050565b7f496e76616c696420646966666963756c7479206c6576656c0000000000000000600082015250565b600061276b6018836117a5565b915061277682612735565b602082019050919050565b6000602082019050818103600083015261279a8161275e565b9050919050565b60006127ac82611ac7565b91506127b783611ac7565b9250828210156127ca576127c9611ef6565b5b828203905092915050565b60008160011c9050919050565b6000808291508390505b600185111561282c5780860481111561280857612807611ef6565b5b60018516156128175780820291505b8081029050612825856127d5565b94506127ec565b94509492505050565b6000826128455760019050612901565b816128535760009050612901565b81600181146128695760028114612873576128a2565b6001915050612901565b60ff84111561288557612884611ef6565b5b8360020a91508482111561289c5761289b611ef6565b5b50612901565b5060208310610133831016604e8410600b84101617156128d75782820a9050838111156128d2576128d1611ef6565b5b612901565b6128e484848460016127e2565b925090508184048111156128fb576128fa611ef6565b5b81810290505b9392505050565b600061291382611ac7565b915061291e83611ac7565b925061292c60ff8484612835565b905092915050565b7f4e487b7100000000000000000000000000000000000000000000000000000000600052601260045260246000fd5b600061296e826116ac565b9150612979836116ac565b92508261298957612988612934565b5b82820490509291505056fea2646970667358221220d686e73a9fc7c058c30b1035666ea606028b05065b8c597e13d72b423c59effd64736f6c634300080f0033",
  "immutableReferences": {},
  "source": "// SPDX-License-Identifier: MIT \r\npragma solidity ^0.8.0;\r\n\r\ncontract ProjectManagement {\r\n    struct Task {\r\n        uint256 taskId;\r\n        string taskName;\r\n        address[] assignedTo;\r\n        bool completed;\r\n        bool approvalRequested;\r\n        uint8 difficultyLevel;\r\n    }\r\n\r\n    struct ProjectNFT {\r\n        uint256 nftId;\r\n        string nftName;\r\n        uint256 totalFragmentsAwarded;\r\n    }\r\n\r\n    struct ProjectMember {\r\n        bool exists;\r\n        string memberName;\r\n        uint256 fragmentsEarned;\r\n    }\r\n\r\n    uint256 public taskCount;\r\n    address public projectOwner;\r\n    uint256 public memberCount;\r\n    address[] public memberAddresses;\r\n    mapping(uint256 => Task) public tasks;\r\n    mapping(address => ProjectMember) public projectMembers;\r\n    ProjectNFT public projectNFT;\r\n\r\n    event TaskCreated(uint256 indexed taskId, string taskName, address[] indexed assignedTo, uint8 difficultyLevel);\r\n    event TaskCompleted(uint256 indexed taskId, string taskName);\r\n    event TaskApprovalRequested(uint256 indexed taskId);\r\n    event TaskApproved(uint256 indexed taskId);\r\n    event TaskDeleted(uint256 indexed taskId);\r\n    event MemberAdded(address indexed member);\r\n    event RewardClaimed(address indexed recipient, uint256 fragments);\r\n\r\n    constructor() {\r\n        projectOwner = msg.sender;\r\n        projectNFT.nftId = 1;\r\n        projectNFT.nftName = \"Project NFT\";\r\n        addProjectMember(projectOwner, \"Owner\");\r\n    }\r\n\r\n    modifier onlyProjectOwner() {\r\n        require(msg.sender == projectOwner, \"Only the project owner can perform this action\");\r\n        _;\r\n    }\r\n\r\n    modifier onlyProjectMember() {\r\n        require(projectMembers[msg.sender].exists, \"Only project members can perform this action\");\r\n        _;\r\n    }\r\n\r\n    function addProjectMember(address _member, string memory _memberName) public onlyProjectOwner {\r\n        require(!projectMembers[_member].exists, \"Member already exists\");\r\n        projectMembers[_member] = ProjectMember(true, _memberName, 0);\r\n        memberAddresses.push(_member);\r\n        memberCount += 1;\r\n        emit MemberAdded(_member);\r\n    }\r\n\r\n    function createTask(string memory _taskName, address[] memory _assignedTo, uint8 _difficultyLevel) public onlyProjectOwner {\r\n        taskCount++;\r\n        tasks[taskCount] = Task(taskCount, _taskName, _assignedTo, false, false, _difficultyLevel);\r\n        emit TaskCreated(taskCount, _taskName, _assignedTo, _difficultyLevel);\r\n    }\r\n\r\n    function requestTaskCompletion(uint256 _taskId) public onlyProjectMember {\r\n        Task storage task = tasks[_taskId];\r\n        require(task.taskId != 0, \"Task does not exist\");\r\n        require(isAssignedToTask(task.assignedTo, msg.sender), \"You are not assigned to this task\");\r\n        require(!task.completed, \"Task is already completed\");\r\n        require(!task.approvalRequested, \"Approval for task completion has already been requested\");\r\n\r\n        task.approvalRequested = true;\r\n        emit TaskApprovalRequested(_taskId);\r\n    }\r\n\r\n    function approveTaskCompletion(uint256 _taskId) public onlyProjectOwner {\r\n        Task storage task = tasks[_taskId];\r\n        require(task.taskId != 0, \"Task does not exist\");\r\n        require(task.approvalRequested, \"Task completion has not been requested\");\r\n        require(!task.completed, \"Task is already completed\");\r\n\r\n        task.completed = true;\r\n        task.approvalRequested = false;\r\n        emit TaskCompleted(_taskId, task.taskName);\r\n\r\n        uint256 rewardFragments = calculateRewardFragments(task.difficultyLevel);\r\n        distributeRewards(task.assignedTo, rewardFragments);\r\n        projectNFT.totalFragmentsAwarded += rewardFragments;\r\n    }\r\n\r\n    function deleteTask(uint256 _taskId) public onlyProjectOwner {\r\n        Task storage task = tasks[_taskId];\r\n        require(task.taskId != 0, \"Task does not exist\");\r\n\r\n        delete tasks[_taskId];\r\n        emit TaskDeleted(_taskId);\r\n    }\r\n\r\n    function calculateRewardFragments(uint8 _difficultyLevel) internal pure returns (uint256) {\r\n        require(_difficultyLevel >= 1 && _difficultyLevel <= 5, \"Invalid difficulty level\");\r\n        return (_difficultyLevel-1)**2;\r\n    }\r\n\r\n    function distributeRewards(address[] memory _recipients, uint256 _rewardFragments) internal {\r\n        uint256 rewardAmount = _rewardFragments / _recipients.length;\r\n        for (uint256 i = 0; i < _recipients.length; i++) {\r\n            address recipient = _recipients[i];\r\n            projectMembers[recipient].fragmentsEarned += rewardAmount;\r\n            emit RewardClaimed(recipient, rewardAmount);\r\n        }\r\n    }\r\n\r\n    function isAssignedToTask(address[] memory _assignedTo, address _address) internal pure returns (bool) {\r\n        for (uint256 i = 0; i < _assignedTo.length; i++) {\r\n            if (_assignedTo[i] == _address) {\r\n                return true;\r\n            }\r\n        }\r\n        return false;\r\n    }\r\n\r\n    function getTotalFragments() public view returns (uint256) {\r\n        return projectNFT.totalFragmentsAwarded;\r\n    }\r\n\r\n    function getOwnedFragments(address _user) public view returns (uint256) {\r\n        return projectMembers[_user].fragmentsEarned;\r\n    }    \r\n    \r\n    function getCompletedTasks() public view returns (uint256[] memory) {\r\n        uint256[] memory completedTaskIds = new uint256[](taskCount);\r\n        uint256 completedCount = 0;\r\n\r\n        for (uint256 i = 1; i <= taskCount; i++) {\r\n            if (tasks[i].completed) {\r\n                completedTaskIds[completedCount] = tasks[i].taskId;\r\n                completedCount++;\r\n            }\r\n        }\r\n\r\n        // Resize the array to remove unused elements\r\n        assembly {\r\n            mstore(completedTaskIds, completedCount)\r\n        }\r\n\r\n        return completedTaskIds;\r\n    }\r\n\r\n    function getPendingTasks() public view returns (uint256[] memory) {\r\n        uint256[] memory pendingTaskIds = new uint256[](taskCount);\r\n        uint256 pendingCount = 0;\r\n\r\n        for (uint256 i = 1; i <= taskCount; i++) {\r\n            if (!tasks[i].completed) {\r\n                pendingTaskIds[pendingCount] = tasks[i].taskId;\r\n                pendingCount++;\r\n            }\r\n        }\r\n\r\n        // Resize the array to remove unused elements\r\n        assembly {\r\n            mstore(pendingTaskIds, pendingCount)\r\n        }\r\n\r\n        return pendingTaskIds;\r\n    }\r\n}\r\n",
  "sourcePath": "D:\\School\\2023 Spring\\web3-proj\\contracts\\contracts\\ProjectManagement.sol",
  "compiler": {
    "name": "solc",
    "version": "0.8.15+commit.e14f2714.Emscripten.clang"
  },
  "schemaVersion": "3.4.14",
  "updatedAt": "2023-05-29T19:03:14.571Z",
  "networkType": "ethereum",
  "devdoc": {
    "kind": "dev",
    "methods": {},
    "version": 1
  },
  "userdoc": {
    "kind": "user",
    "methods": {},
    "version": 1
  }
}