{
  "contractName": "ProjectManagement",
  "abi": [
    {
      "inputs": [],
      "stateMutability": "nonpayable",
      "type": "constructor"
    },
    {
      "anonymous": false,
      "inputs": [
        {
          "indexed": true,
          "internalType": "address",
          "name": "member",
          "type": "address"
        }
      ],
      "name": "MemberAdded",
      "type": "event"
    },
    {
      "anonymous": false,
      "inputs": [
        {
          "indexed": true,
          "internalType": "address",
          "name": "previousOwner",
          "type": "address"
        },
        {
          "indexed": true,
          "internalType": "address",
          "name": "newOwner",
          "type": "address"
        }
      ],
      "name": "ProjectOwnershipTransferred",
      "type": "event"
    },
    {
      "anonymous": false,
      "inputs": [
        {
          "indexed": true,
          "internalType": "address",
          "name": "recipient",
          "type": "address"
        },
        {
          "indexed": false,
          "internalType": "uint256",
          "name": "fragments",
          "type": "uint256"
        }
      ],
      "name": "RewardClaimed",
      "type": "event"
    },
    {
      "anonymous": false,
      "inputs": [
        {
          "indexed": true,
          "internalType": "uint256",
          "name": "taskId",
          "type": "uint256"
        }
      ],
      "name": "TaskApprovalRequested",
      "type": "event"
    },
    {
      "anonymous": false,
      "inputs": [
        {
          "indexed": true,
          "internalType": "uint256",
          "name": "taskId",
          "type": "uint256"
        }
      ],
      "name": "TaskApproved",
      "type": "event"
    },
    {
      "anonymous": false,
      "inputs": [
        {
          "indexed": true,
          "internalType": "uint256",
          "name": "taskId",
          "type": "uint256"
        },
        {
          "indexed": false,
          "internalType": "string",
          "name": "taskName",
          "type": "string"
        }
      ],
      "name": "TaskCompleted",
      "type": "event"
    },
    {
      "anonymous": false,
      "inputs": [
        {
          "indexed": true,
          "internalType": "uint256",
          "name": "taskId",
          "type": "uint256"
        },
        {
          "indexed": false,
          "internalType": "string",
          "name": "taskName",
          "type": "string"
        },
        {
          "indexed": true,
          "internalType": "address[]",
          "name": "assignedTo",
          "type": "address[]"
        },
        {
          "indexed": false,
          "internalType": "uint8",
          "name": "difficultyLevel",
          "type": "uint8"
        }
      ],
      "name": "TaskCreated",
      "type": "event"
    },
    {
      "anonymous": false,
      "inputs": [
        {
          "indexed": true,
          "internalType": "uint256",
          "name": "taskId",
          "type": "uint256"
        }
      ],
      "name": "TaskDeleted",
      "type": "event"
    },
    {
      "inputs": [
        {
          "internalType": "uint256",
          "name": "",
          "type": "uint256"
        }
      ],
      "name": "memberAddresses",
      "outputs": [
        {
          "internalType": "address",
          "name": "",
          "type": "address"
        }
      ],
      "stateMutability": "view",
      "type": "function",
      "constant": true
    },
    {
      "inputs": [],
      "name": "memberCount",
      "outputs": [
        {
          "internalType": "uint256",
          "name": "",
          "type": "uint256"
        }
      ],
      "stateMutability": "view",
      "type": "function",
      "constant": true
    },
    {
      "inputs": [
        {
          "internalType": "address",
          "name": "",
          "type": "address"
        }
      ],
      "name": "projectMembers",
      "outputs": [
        {
          "internalType": "bool",
          "name": "exists",
          "type": "bool"
        },
        {
          "internalType": "string",
          "name": "memberName",
          "type": "string"
        },
        {
          "internalType": "uint256",
          "name": "fragmentsEarned",
          "type": "uint256"
        }
      ],
      "stateMutability": "view",
      "type": "function",
      "constant": true
    },
    {
      "inputs": [],
      "name": "projectNFT",
      "outputs": [
        {
          "internalType": "uint256",
          "name": "nftId",
          "type": "uint256"
        },
        {
          "internalType": "string",
          "name": "nftName",
          "type": "string"
        },
        {
          "internalType": "uint256",
          "name": "totalFragmentsAwarded",
          "type": "uint256"
        }
      ],
      "stateMutability": "view",
      "type": "function",
      "constant": true
    },
    {
      "inputs": [],
      "name": "projectOwner",
      "outputs": [
        {
          "internalType": "address",
          "name": "",
          "type": "address"
        }
      ],
      "stateMutability": "view",
      "type": "function",
      "constant": true
    },
    {
      "inputs": [],
      "name": "taskCount",
      "outputs": [
        {
          "internalType": "uint256",
          "name": "",
          "type": "uint256"
        }
      ],
      "stateMutability": "view",
      "type": "function",
      "constant": true
    },
    {
      "inputs": [
        {
          "internalType": "uint256",
          "name": "",
          "type": "uint256"
        }
      ],
      "name": "tasks",
      "outputs": [
        {
          "internalType": "uint256",
          "name": "taskId",
          "type": "uint256"
        },
        {
          "internalType": "string",
          "name": "taskName",
          "type": "string"
        },
        {
          "internalType": "bool",
          "name": "completed",
          "type": "bool"
        },
        {
          "internalType": "bool",
          "name": "approvalRequested",
          "type": "bool"
        },
        {
          "internalType": "uint8",
          "name": "difficultyLevel",
          "type": "uint8"
        }
      ],
      "stateMutability": "view",
      "type": "function",
      "constant": true
    },
    {
      "inputs": [
        {
          "internalType": "address",
          "name": "_member",
          "type": "address"
        },
        {
          "internalType": "string",
          "name": "_memberName",
          "type": "string"
        }
      ],
      "name": "addProjectMember",
      "outputs": [],
      "stateMutability": "nonpayable",
      "type": "function"
    },
    {
      "inputs": [
        {
          "internalType": "address",
          "name": "_newOwner",
          "type": "address"
        }
      ],
      "name": "handoverOwnership",
      "outputs": [],
      "stateMutability": "nonpayable",
      "type": "function"
    },
    {
      "inputs": [
        {
          "internalType": "string",
          "name": "_taskName",
          "type": "string"
        },
        {
          "internalType": "address[]",
          "name": "_assignedTo",
          "type": "address[]"
        },
        {
          "internalType": "uint8",
          "name": "_difficultyLevel",
          "type": "uint8"
        }
      ],
      "name": "createTask",
      "outputs": [],
      "stateMutability": "nonpayable",
      "type": "function"
    },
    {
      "inputs": [
        {
          "internalType": "uint256",
          "name": "_taskId",
          "type": "uint256"
        }
      ],
      "name": "requestTaskCompletion",
      "outputs": [],
      "stateMutability": "nonpayable",
      "type": "function"
    },
    {
      "inputs": [
        {
          "internalType": "uint256",
          "name": "_taskId",
          "type": "uint256"
        }
      ],
      "name": "approveTaskCompletion",
      "outputs": [],
      "stateMutability": "nonpayable",
      "type": "function"
    },
    {
      "inputs": [
        {
          "internalType": "uint256",
          "name": "_taskId",
          "type": "uint256"
        }
      ],
      "name": "deleteTask",
      "outputs": [],
      "stateMutability": "nonpayable",
      "type": "function"
    },
    {
      "inputs": [],
      "name": "getTotalFragments",
      "outputs": [
        {
          "internalType": "uint256",
          "name": "",
          "type": "uint256"
        }
      ],
      "stateMutability": "view",
      "type": "function",
      "constant": true
    },
    {
      "inputs": [
        {
          "internalType": "address",
          "name": "_user",
          "type": "address"
        }
      ],
      "name": "getOwnedFragments",
      "outputs": [
        {
          "internalType": "uint256",
          "name": "",
          "type": "uint256"
        }
      ],
      "stateMutability": "view",
      "type": "function",
      "constant": true
    },
    {
      "inputs": [],
      "name": "getCompletedTasks",
      "outputs": [
        {
          "internalType": "uint256[]",
          "name": "",
          "type": "uint256[]"
        }
      ],
      "stateMutability": "view",
      "type": "function",
      "constant": true
    },
    {
      "inputs": [],
      "name": "getPendingTasks",
      "outputs": [
        {
          "internalType": "uint256[]",
          "name": "",
          "type": "uint256[]"
        }
      ],
      "stateMutability": "view",
      "type": "function",
      "constant": true
    }
  ],
  "bytecode": "0x60806040523480156200001157600080fd5b5033600160006101000a81548173ffffffffffffffffffffffffffffffffffffffff021916908373ffffffffffffffffffffffffffffffffffffffff16021790555060016006600001819055506040518060400160405280600b81526020017f50726f6a656374204e465400000000000000000000000000000000000000000081525060066001019081620000a7919062000620565b5062000111600160009054906101000a900473ffffffffffffffffffffffffffffffffffffffff166040518060400160405280600381526020017f4b696d00000000000000000000000000000000000000000000000000000000008152506200011760201b60201c565b620008ae565b600160009054906101000a900473ffffffffffffffffffffffffffffffffffffffff1673ffffffffffffffffffffffffffffffffffffffff163373ffffffffffffffffffffffffffffffffffffffff1614620001aa576040517f08c379a0000000000000000000000000000000000000000000000000000000008152600401620001a1906200078e565b60405180910390fd5b600560008373ffffffffffffffffffffffffffffffffffffffff1673ffffffffffffffffffffffffffffffffffffffff16815260200190815260200160002060000160009054906101000a900460ff16156200023d576040517f08c379a0000000000000000000000000000000000000000000000000000000008152600401620002349062000800565b60405180910390fd5b60405180606001604052806001151581526020018281526020016000815250600560008473ffffffffffffffffffffffffffffffffffffffff1673ffffffffffffffffffffffffffffffffffffffff16815260200190815260200160002060008201518160000160006101000a81548160ff0219169083151502179055506020820151816001019081620002d2919062000620565b50604082015181600201559050506003829080600181540180825580915050600190039060005260206000200160009091909190916101000a81548173ffffffffffffffffffffffffffffffffffffffff021916908373ffffffffffffffffffffffffffffffffffffffff16021790555060016002600082825462000358919062000851565b925050819055508173ffffffffffffffffffffffffffffffffffffffff167fb251eb052afc73ffd02ffe85ad79990a8b3fed60d76dbc2fa2fdd7123dffd91460405160405180910390a25050565b600081519050919050565b7f4e487b7100000000000000000000000000000000000000000000000000000000600052604160045260246000fd5b7f4e487b7100000000000000000000000000000000000000000000000000000000600052602260045260246000fd5b600060028204905060018216806200042857607f821691505b6020821081036200043e576200043d620003e0565b5b50919050565b60008190508160005260206000209050919050565b60006020601f8301049050919050565b600082821b905092915050565b600060088302620004a87fffffffffffffffffffffffffffffffffffffffffffffffffffffffffffffffff8262000469565b620004b4868362000469565b95508019841693508086168417925050509392505050565b6000819050919050565b6000819050919050565b600062000501620004fb620004f584620004cc565b620004d6565b620004cc565b9050919050565b6000819050919050565b6200051d83620004e0565b620005356200052c8262000508565b84845462000476565b825550505050565b600090565b6200054c6200053d565b6200055981848462000512565b505050565b5b8181101562000581576200057560008262000542565b6001810190506200055f565b5050565b601f821115620005d0576200059a8162000444565b620005a58462000459565b81016020851015620005b5578190505b620005cd620005c48562000459565b8301826200055e565b50505b505050565b600082821c905092915050565b6000620005f560001984600802620005d5565b1980831691505092915050565b6000620006108383620005e2565b9150826002028217905092915050565b6200062b82620003a6565b67ffffffffffffffff811115620006475762000646620003b1565b5b6200065382546200040f565b6200066082828562000585565b600060209050601f83116001811462000698576000841562000683578287015190505b6200068f858262000602565b865550620006ff565b601f198416620006a88662000444565b60005b82811015620006d257848901518255600182019150602085019450602081019050620006ab565b86831015620006f25784890151620006ee601f891682620005e2565b8355505b6001600288020188555050505b505050505050565b600082825260208201905092915050565b7f4f6e6c79207468652070726f6a656374206f776e65722063616e20706572666f60008201527f726d207468697320616374696f6e000000000000000000000000000000000000602082015250565b600062000776602e8362000707565b9150620007838262000718565b604082019050919050565b60006020820190508181036000830152620007a98162000767565b9050919050565b7f4d656d62657220616c7265616479206578697374730000000000000000000000600082015250565b6000620007e860158362000707565b9150620007f582620007b0565b602082019050919050565b600060208201905081810360008301526200081b81620007d9565b9050919050565b7f4e487b7100000000000000000000000000000000000000000000000000000000600052601160045260246000fd5b60006200085e82620004cc565b91506200086b83620004cc565b9250827fffffffffffffffffffffffffffffffffffffffffffffffffffffffffffffffff03821115620008a357620008a262000822565b5b828201905092915050565b612d5480620008be6000396000f3fe608060405234801561001057600080fd5b506004361061010b5760003560e01c8063a2fd6917116100a2578063c35b903011610071578063c35b9030146102b0578063c766a666146102ce578063cc4e6299146102ea578063d61d6c0f1461031a578063d763179f146103365761010b565b8063a2fd691714610238578063a4475ce414610258578063acc8d4fe14610276578063b6cb58a5146102925761010b565b80636c830f4b116100de5780636c830f4b146101985780637484bed6146101b657806380195fca146101e65780638d977672146102045761010b565b806311aee380146101105780632127fd931461012e578063560f31921461016057806362d3c7ba1461017c575b600080fd5b610118610352565b6040516101259190611938565b60405180910390f35b610148600480360381019061014391906119c5565b610358565b60405161015793929190611aa6565b60405180910390f35b61017a60048036038101906101759190611b10565b610417565b005b61019660048036038101906101919190611d73565b6105b0565b005b6101a061079b565b6040516101ad9190611ebc565b60405180910390f35b6101d060048036038101906101cb91906119c5565b610889565b6040516101dd9190611938565b60405180910390f35b6101ee6108d5565b6040516101fb9190611938565b60405180910390f35b61021e60048036038101906102199190611b10565b6108e2565b60405161022f959493929190611eed565b60405180910390f35b6102406109c7565b60405161024f93929190611f47565b60405180910390f35b610260610a67565b60405161026d9190611f94565b60405180910390f35b610290600480360381019061028b9190611b10565b610a8d565b005b61029a610d3d565b6040516102a79190611938565b60405180910390f35b6102b8610d43565b6040516102c59190611ebc565b60405180910390f35b6102e860048036038101906102e39190611faf565b610e30565b005b61030460048036038101906102ff9190611b10565b6110b5565b6040516103119190611f94565b60405180910390f35b610334600480360381019061032f9190611b10565b6110f4565b005b610350600480360381019061034b91906119c5565b6113af565b005b60025481565b60056020528060005260406000206000915090508060000160009054906101000a900460ff169080600101805461038e9061203a565b80601f01602080910402602001604051908101604052809291908181526020018280546103ba9061203a565b80156104075780601f106103dc57610100808354040283529160200191610407565b820191906000526020600020905b8154815290600101906020018083116103ea57829003601f168201915b5050505050908060020154905083565b600160009054906101000a900473ffffffffffffffffffffffffffffffffffffffff1673ffffffffffffffffffffffffffffffffffffffff163373ffffffffffffffffffffffffffffffffffffffff16146104a7576040517f08c379a000000000000000000000000000000000000000000000000000000000815260040161049e906120dd565b60405180910390fd5b60006004600083815260200190815260200160002090506000816000015403610505576040517f08c379a00000000000000000000000000000000000000000000000000000000081526004016104fc90612149565b60405180910390fd5b600460008381526020019081526020016000206000808201600090556001820160006105319190611817565b6002820160006105419190611857565b6003820160006101000a81549060ff02191690556003820160016101000a81549060ff02191690556003820160026101000a81549060ff02191690555050817fd078b251d950cc55c44340be1db732337ef4939a76e1367ee271ad2cb19c46af60405160405180910390a25050565b600160009054906101000a900473ffffffffffffffffffffffffffffffffffffffff1673ffffffffffffffffffffffffffffffffffffffff163373ffffffffffffffffffffffffffffffffffffffff1614610640576040517f08c379a0000000000000000000000000000000000000000000000000000000008152600401610637906120dd565b60405180910390fd5b60008081548092919061065290612198565b91905055506040518060c0016040528060005481526020018481526020018381526020016000151581526020016000151581526020018260ff1681525060046000805481526020019081526020016000206000820151816000015560208201518160010190816106c2919061238c565b5060408201518160020190805190602001906106df929190611878565b5060608201518160030160006101000a81548160ff02191690831515021790555060808201518160030160016101000a81548160ff02191690831515021790555060a08201518160030160026101000a81548160ff021916908360ff160217905550905050816040516107529190612516565b60405180910390206000547f04e80ce68755d6acb3d694d6fb429a92e07bebb64d074d014684fa024b2acea1858460405161078e92919061252d565b60405180910390a3505050565b60606000805467ffffffffffffffff8111156107ba576107b9611b47565b5b6040519080825280602002602001820160405280156107e85781602001602082028036833780820191505090505b509050600080600190505b600054811161087d576004600082815260200190815260200160002060030160009054906101000a900460ff161561086a57600460008281526020019081526020016000206000015483838151811061084f5761084e61255d565b5b602002602001018181525050818061086690612198565b9250505b808061087590612198565b9150506107f3565b50808252819250505090565b6000600560008373ffffffffffffffffffffffffffffffffffffffff1673ffffffffffffffffffffffffffffffffffffffff168152602001908152602001600020600201549050919050565b6000600660020154905090565b600460205280600052604060002060009150905080600001549080600101805461090b9061203a565b80601f01602080910402602001604051908101604052809291908181526020018280546109379061203a565b80156109845780601f1061095957610100808354040283529160200191610984565b820191906000526020600020905b81548152906001019060200180831161096757829003601f168201915b5050505050908060030160009054906101000a900460ff16908060030160019054906101000a900460ff16908060030160029054906101000a900460ff16905085565b60068060000154908060010180546109de9061203a565b80601f0160208091040260200160405190810160405280929190818152602001828054610a0a9061203a565b8015610a575780601f10610a2c57610100808354040283529160200191610a57565b820191906000526020600020905b815481529060010190602001808311610a3a57829003601f168201915b5050505050908060020154905083565b600160009054906101000a900473ffffffffffffffffffffffffffffffffffffffff1681565b600560003373ffffffffffffffffffffffffffffffffffffffff1673ffffffffffffffffffffffffffffffffffffffff16815260200190815260200160002060000160009054906101000a900460ff16610b1c576040517f08c379a0000000000000000000000000000000000000000000000000000000008152600401610b13906125fe565b60405180910390fd5b60006004600083815260200190815260200160002090506000816000015403610b7a576040517f08c379a0000000000000000000000000000000000000000000000000000000008152600401610b7190612149565b60405180910390fd5b610c0c81600201805480602002602001604051908101604052809291908181526020018280548015610c0157602002820191906000526020600020905b8160009054906101000a900473ffffffffffffffffffffffffffffffffffffffff1673ffffffffffffffffffffffffffffffffffffffff1681526020019060010190808311610bb7575b505050505033611604565b610c4b576040517f08c379a0000000000000000000000000000000000000000000000000000000008152600401610c4290612690565b60405180910390fd5b8060030160009054906101000a900460ff1615610c9d576040517f08c379a0000000000000000000000000000000000000000000000000000000008152600401610c94906126fc565b60405180910390fd5b8060030160019054906101000a900460ff1615610cef576040517f08c379a0000000000000000000000000000000000000000000000000000000008152600401610ce69061278e565b60405180910390fd5b60018160030160016101000a81548160ff021916908315150217905550817fc4cf761fd63c11408ed8de43ecb8479c12cc5b54ae63d9245fda4660980e84f360405160405180910390a25050565b60005481565b60606000805467ffffffffffffffff811115610d6257610d61611b47565b5b604051908082528060200260200182016040528015610d905781602001602082028036833780820191505090505b509050600080600190505b6000548111610e24576004600082815260200190815260200160002060030160009054906101000a900460ff16610e11576004600082815260200190815260200160002060000154838381518110610df657610df561255d565b5b6020026020010181815250508180610e0d90612198565b9250505b8080610e1c90612198565b915050610d9b565b50808252819250505090565b600160009054906101000a900473ffffffffffffffffffffffffffffffffffffffff1673ffffffffffffffffffffffffffffffffffffffff163373ffffffffffffffffffffffffffffffffffffffff1614610ec0576040517f08c379a0000000000000000000000000000000000000000000000000000000008152600401610eb7906120dd565b60405180910390fd5b600560008373ffffffffffffffffffffffffffffffffffffffff1673ffffffffffffffffffffffffffffffffffffffff16815260200190815260200160002060000160009054906101000a900460ff1615610f50576040517f08c379a0000000000000000000000000000000000000000000000000000000008152600401610f47906127fa565b60405180910390fd5b60405180606001604052806001151581526020018281526020016000815250600560008473ffffffffffffffffffffffffffffffffffffffff1673ffffffffffffffffffffffffffffffffffffffff16815260200190815260200160002060008201518160000160006101000a81548160ff0219169083151502179055506020820151816001019081610fe3919061238c565b50604082015181600201559050506003829080600181540180825580915050600190039060005260206000200160009091909190916101000a81548173ffffffffffffffffffffffffffffffffffffffff021916908373ffffffffffffffffffffffffffffffffffffffff160217905550600160026000828254611067919061281a565b925050819055508173ffffffffffffffffffffffffffffffffffffffff167fb251eb052afc73ffd02ffe85ad79990a8b3fed60d76dbc2fa2fdd7123dffd91460405160405180910390a25050565b600381815481106110c557600080fd5b906000526020600020016000915054906101000a900473ffffffffffffffffffffffffffffffffffffffff1681565b600160009054906101000a900473ffffffffffffffffffffffffffffffffffffffff1673ffffffffffffffffffffffffffffffffffffffff163373ffffffffffffffffffffffffffffffffffffffff1614611184576040517f08c379a000000000000000000000000000000000000000000000000000000000815260040161117b906120dd565b60405180910390fd5b600060046000838152602001908152602001600020905060008160000154036111e2576040517f08c379a00000000000000000000000000000000000000000000000000000000081526004016111d990612149565b60405180910390fd5b8060030160019054906101000a900460ff16611233576040517f08c379a000000000000000000000000000000000000000000000000000000000815260040161122a906128e2565b60405180910390fd5b8060030160009054906101000a900460ff1615611285576040517f08c379a000000000000000000000000000000000000000000000000000000000815260040161127c906126fc565b60405180910390fd5b60018160030160006101000a81548160ff02191690831515021790555060008160030160016101000a81548160ff021916908315150217905550817f7e6ffc29fe63759579d96a0457a8f2e08339aca345bd469f59dc2e61f82a5aeb826001016040516112f29190612986565b60405180910390a260006113168260030160029054906101000a900460ff1661168b565b90506113aa8260020180548060200260200160405190810160405280929190818152602001828054801561139f57602002820191906000526020600020905b8160009054906101000a900473ffffffffffffffffffffffffffffffffffffffff1673ffffffffffffffffffffffffffffffffffffffff1681526020019060010190808311611355575b505050505082611704565b505050565b600160009054906101000a900473ffffffffffffffffffffffffffffffffffffffff1673ffffffffffffffffffffffffffffffffffffffff163373ffffffffffffffffffffffffffffffffffffffff161461143f576040517f08c379a0000000000000000000000000000000000000000000000000000000008152600401611436906120dd565b60405180910390fd5b600073ffffffffffffffffffffffffffffffffffffffff168173ffffffffffffffffffffffffffffffffffffffff16036114ae576040517f08c379a00000000000000000000000000000000000000000000000000000000081526004016114a5906129f4565b60405180910390fd5b600160009054906101000a900473ffffffffffffffffffffffffffffffffffffffff1673ffffffffffffffffffffffffffffffffffffffff168173ffffffffffffffffffffffffffffffffffffffff160361153e576040517f08c379a000000000000000000000000000000000000000000000000000000000815260040161153590612a86565b60405180910390fd5b6000600160009054906101000a900473ffffffffffffffffffffffffffffffffffffffff16905081600160006101000a81548173ffffffffffffffffffffffffffffffffffffffff021916908373ffffffffffffffffffffffffffffffffffffffff1602179055508173ffffffffffffffffffffffffffffffffffffffff168173ffffffffffffffffffffffffffffffffffffffff167f30bb229bef90aac6041c2ec454d33c607eaa58b7acafea53e10c3a738aadcebc60405160405180910390a35050565b600080600090505b835181101561167f578273ffffffffffffffffffffffffffffffffffffffff1684828151811061163f5761163e61255d565b5b602002602001015173ffffffffffffffffffffffffffffffffffffffff160361166c576001915050611685565b808061167790612198565b91505061160c565b50600090505b92915050565b600060018260ff16101580156116a5575060058260ff1611155b6116e4576040517f08c379a00000000000000000000000000000000000000000000000000000000081526004016116db90612af2565b60405180910390fd5b6001826116f19190612b12565b60026116fd9190612c79565b9050919050565b8151816117119190612cc4565b60066002016000828254611725919061281a565b9250508190555060005b825181101561181257600083828151811061174d5761174c61255d565b5b6020026020010151905082600560008373ffffffffffffffffffffffffffffffffffffffff1673ffffffffffffffffffffffffffffffffffffffff16815260200190815260200160002060020160008282546117a9919061281a565b925050819055508073ffffffffffffffffffffffffffffffffffffffff167f106f923f993c2149d49b4255ff723acafa1f2d94393f561d3eda32ae348f7241846040516117f69190611938565b60405180910390a250808061180a90612198565b91505061172f565b505050565b5080546118239061203a565b6000825580601f106118355750611854565b601f0160209004906000526020600020908101906118539190611902565b5b50565b50805460008255906000526020600020908101906118759190611902565b50565b8280548282559060005260206000209081019282156118f1579160200282015b828111156118f05782518260006101000a81548173ffffffffffffffffffffffffffffffffffffffff021916908373ffffffffffffffffffffffffffffffffffffffff16021790555091602001919060010190611898565b5b5090506118fe9190611902565b5090565b5b8082111561191b576000816000905550600101611903565b5090565b6000819050919050565b6119328161191f565b82525050565b600060208201905061194d6000830184611929565b92915050565b6000604051905090565b600080fd5b600080fd5b600073ffffffffffffffffffffffffffffffffffffffff82169050919050565b600061199282611967565b9050919050565b6119a281611987565b81146119ad57600080fd5b50565b6000813590506119bf81611999565b92915050565b6000602082840312156119db576119da61195d565b5b60006119e9848285016119b0565b91505092915050565b60008115159050919050565b611a07816119f2565b82525050565b600081519050919050565b600082825260208201905092915050565b60005b83811015611a47578082015181840152602081019050611a2c565b83811115611a56576000848401525b50505050565b6000601f19601f8301169050919050565b6000611a7882611a0d565b611a828185611a18565b9350611a92818560208601611a29565b611a9b81611a5c565b840191505092915050565b6000606082019050611abb60008301866119fe565b8181036020830152611acd8185611a6d565b9050611adc6040830184611929565b949350505050565b611aed8161191f565b8114611af857600080fd5b50565b600081359050611b0a81611ae4565b92915050565b600060208284031215611b2657611b2561195d565b5b6000611b3484828501611afb565b91505092915050565b600080fd5b600080fd5b7f4e487b7100000000000000000000000000000000000000000000000000000000600052604160045260246000fd5b611b7f82611a5c565b810181811067ffffffffffffffff82111715611b9e57611b9d611b47565b5b80604052505050565b6000611bb1611953565b9050611bbd8282611b76565b919050565b600067ffffffffffffffff821115611bdd57611bdc611b47565b5b611be682611a5c565b9050602081019050919050565b82818337600083830152505050565b6000611c15611c1084611bc2565b611ba7565b905082815260208101848484011115611c3157611c30611b42565b5b611c3c848285611bf3565b509392505050565b600082601f830112611c5957611c58611b3d565b5b8135611c69848260208601611c02565b91505092915050565b600067ffffffffffffffff821115611c8d57611c8c611b47565b5b602082029050602081019050919050565b600080fd5b6000611cb6611cb184611c72565b611ba7565b90508083825260208201905060208402830185811115611cd957611cd8611c9e565b5b835b81811015611d025780611cee88826119b0565b845260208401935050602081019050611cdb565b5050509392505050565b600082601f830112611d2157611d20611b3d565b5b8135611d31848260208601611ca3565b91505092915050565b600060ff82169050919050565b611d5081611d3a565b8114611d5b57600080fd5b50565b600081359050611d6d81611d47565b92915050565b600080600060608486031215611d8c57611d8b61195d565b5b600084013567ffffffffffffffff811115611daa57611da9611962565b5b611db686828701611c44565b935050602084013567ffffffffffffffff811115611dd757611dd6611962565b5b611de386828701611d0c565b9250506040611df486828701611d5e565b9150509250925092565b600081519050919050565b600082825260208201905092915050565b6000819050602082019050919050565b611e338161191f565b82525050565b6000611e458383611e2a565b60208301905092915050565b6000602082019050919050565b6000611e6982611dfe565b611e738185611e09565b9350611e7e83611e1a565b8060005b83811015611eaf578151611e968882611e39565b9750611ea183611e51565b925050600181019050611e82565b5085935050505092915050565b60006020820190508181036000830152611ed68184611e5e565b905092915050565b611ee781611d3a565b82525050565b600060a082019050611f026000830188611929565b8181036020830152611f148187611a6d565b9050611f2360408301866119fe565b611f3060608301856119fe565b611f3d6080830184611ede565b9695505050505050565b6000606082019050611f5c6000830186611929565b8181036020830152611f6e8185611a6d565b9050611f7d6040830184611929565b949350505050565b611f8e81611987565b82525050565b6000602082019050611fa96000830184611f85565b92915050565b60008060408385031215611fc657611fc561195d565b5b6000611fd4858286016119b0565b925050602083013567ffffffffffffffff811115611ff557611ff4611962565b5b61200185828601611c44565b9150509250929050565b7f4e487b7100000000000000000000000000000000000000000000000000000000600052602260045260246000fd5b6000600282049050600182168061205257607f821691505b6020821081036120655761206461200b565b5b50919050565b7f4f6e6c79207468652070726f6a656374206f776e65722063616e20706572666f60008201527f726d207468697320616374696f6e000000000000000000000000000000000000602082015250565b60006120c7602e83611a18565b91506120d28261206b565b604082019050919050565b600060208201905081810360008301526120f6816120ba565b9050919050565b7f5461736b20646f6573206e6f7420657869737400000000000000000000000000600082015250565b6000612133601383611a18565b915061213e826120fd565b602082019050919050565b6000602082019050818103600083015261216281612126565b9050919050565b7f4e487b7100000000000000000000000000000000000000000000000000000000600052601160045260246000fd5b60006121a38261191f565b91507fffffffffffffffffffffffffffffffffffffffffffffffffffffffffffffffff82036121d5576121d4612169565b5b600182019050919050565b60008190508160005260206000209050919050565b60006020601f8301049050919050565b600082821b905092915050565b6000600883026122427fffffffffffffffffffffffffffffffffffffffffffffffffffffffffffffffff82612205565b61224c8683612205565b95508019841693508086168417925050509392505050565b6000819050919050565b600061228961228461227f8461191f565b612264565b61191f565b9050919050565b6000819050919050565b6122a38361226e565b6122b76122af82612290565b848454612212565b825550505050565b600090565b6122cc6122bf565b6122d781848461229a565b505050565b5b818110156122fb576122f06000826122c4565b6001810190506122dd565b5050565b601f82111561234057612311816121e0565b61231a846121f5565b81016020851015612329578190505b61233d612335856121f5565b8301826122dc565b50505b505050565b600082821c905092915050565b600061236360001984600802612345565b1980831691505092915050565b600061237c8383612352565b9150826002028217905092915050565b61239582611a0d565b67ffffffffffffffff8111156123ae576123ad611b47565b5b6123b8825461203a565b6123c38282856122ff565b600060209050601f8311600181146123f657600084156123e4578287015190505b6123ee8582612370565b865550612456565b601f198416612404866121e0565b60005b8281101561242c57848901518255600182019150602085019450602081019050612407565b868310156124495784890151612445601f891682612352565b8355505b6001600288020188555050505b505050505050565b600081519050919050565b600081905092915050565b6000819050602082019050919050565b61248d81611987565b82525050565b600061249f8383612484565b60208301905092915050565b6000602082019050919050565b60006124c38261245e565b6124cd8185612469565b93506124d883612474565b8060005b838110156125095781516124f08882612493565b97506124fb836124ab565b9250506001810190506124dc565b5085935050505092915050565b600061252282846124b8565b915081905092915050565b600060408201905081810360008301526125478185611a6d565b90506125566020830184611ede565b9392505050565b7f4e487b7100000000000000000000000000000000000000000000000000000000600052603260045260246000fd5b7f4f6e6c792070726f6a656374206d656d626572732063616e20706572666f726d60008201527f207468697320616374696f6e0000000000000000000000000000000000000000602082015250565b60006125e8602c83611a18565b91506125f38261258c565b604082019050919050565b60006020820190508181036000830152612617816125db565b9050919050565b7f596f7520617265206e6f742061737369676e656420746f20746869732074617360008201527f6b00000000000000000000000000000000000000000000000000000000000000602082015250565b600061267a602183611a18565b91506126858261261e565b604082019050919050565b600060208201905081810360008301526126a98161266d565b9050919050565b7f5461736b20697320616c726561647920636f6d706c6574656400000000000000600082015250565b60006126e6601983611a18565b91506126f1826126b0565b602082019050919050565b60006020820190508181036000830152612715816126d9565b9050919050565b7f417070726f76616c20666f72207461736b20636f6d706c6574696f6e2068617360008201527f20616c7265616479206265656e20726571756573746564000000000000000000602082015250565b6000612778603783611a18565b91506127838261271c565b604082019050919050565b600060208201905081810360008301526127a78161276b565b9050919050565b7f4d656d62657220616c7265616479206578697374730000000000000000000000600082015250565b60006127e4601583611a18565b91506127ef826127ae565b602082019050919050565b60006020820190508181036000830152612813816127d7565b9050919050565b60006128258261191f565b91506128308361191f565b9250827fffffffffffffffffffffffffffffffffffffffffffffffffffffffffffffffff0382111561286557612864612169565b5b828201905092915050565b7f5461736b20636f6d706c6574696f6e20686173206e6f74206265656e2072657160008201527f7565737465640000000000000000000000000000000000000000000000000000602082015250565b60006128cc602683611a18565b91506128d782612870565b604082019050919050565b600060208201905081810360008301526128fb816128bf565b9050919050565b6000815461290f8161203a565b6129198186611a18565b94506001821660008114612934576001811461294a5761297d565b60ff19831686528115156020028601935061297d565b612953856121e0565b60005b8381101561297557815481890152600182019150602081019050612956565b808801955050505b50505092915050565b600060208201905081810360008301526129a08184612902565b905092915050565b7f496e76616c6964206e6577206f776e6572206164647265737300000000000000600082015250565b60006129de601983611a18565b91506129e9826129a8565b602082019050919050565b60006020820190508181036000830152612a0d816129d1565b9050919050565b7f4e6577206f776e65722061646472657373206d7573742062652064696666657260008201527f656e742066726f6d207468652063757272656e74206f776e6572000000000000602082015250565b6000612a70603a83611a18565b9150612a7b82612a14565b604082019050919050565b60006020820190508181036000830152612a9f81612a63565b9050919050565b7f496e76616c696420646966666963756c7479206c6576656c0000000000000000600082015250565b6000612adc601883611a18565b9150612ae782612aa6565b602082019050919050565b60006020820190508181036000830152612b0b81612acf565b9050919050565b6000612b1d82611d3a565b9150612b2883611d3a565b925082821015612b3b57612b3a612169565b5b828203905092915050565b60008160011c9050919050565b6000808291508390505b6001851115612b9d57808604811115612b7957612b78612169565b5b6001851615612b885780820291505b8081029050612b9685612b46565b9450612b5d565b94509492505050565b600082612bb65760019050612c72565b81612bc45760009050612c72565b8160018114612bda5760028114612be457612c13565b6001915050612c72565b60ff841115612bf657612bf5612169565b5b8360020a915084821115612c0d57612c0c612169565b5b50612c72565b5060208310610133831016604e8410600b8410161715612c485782820a905083811115612c4357612c42612169565b5b612c72565b612c558484846001612b53565b92509050818404811115612c6c57612c6b612169565b5b81810290505b9392505050565b6000612c848261191f565b9150612c8f83611d3a565b9250612cbc7fffffffffffffffffffffffffffffffffffffffffffffffffffffffffffffffff8484612ba6565b905092915050565b6000612ccf8261191f565b9150612cda8361191f565b9250817fffffffffffffffffffffffffffffffffffffffffffffffffffffffffffffffff0483118215151615612d1357612d12612169565b5b82820290509291505056fea2646970667358221220f3beba0b598663ce1ff722561d79309c8c9e72c3d3f39b6d4df768c5463f9a8664736f6c634300080f0033",
  "immutableReferences": {},
  "source": "// SPDX-License-Identifier: MIT \r\npragma solidity ^0.8.0;\r\n\r\ncontract ProjectManagement {\r\n    struct Task {\r\n        uint256 taskId;\r\n        string taskName;\r\n        address[] assignedTo;\r\n        bool completed;\r\n        bool approvalRequested;\r\n        uint8 difficultyLevel;\r\n    }\r\n\r\n    struct ProjectNFT {\r\n        uint256 nftId;\r\n        string nftName;\r\n        uint256 totalFragmentsAwarded;\r\n    }\r\n\r\n    struct ProjectMember {\r\n        bool exists;\r\n        string memberName;\r\n        uint256 fragmentsEarned;\r\n    }\r\n\r\n    uint256 public taskCount;\r\n    address public projectOwner;\r\n    uint256 public memberCount;\r\n    address[] public memberAddresses;\r\n    mapping(uint256 => Task) public tasks;\r\n    mapping(address => ProjectMember) public projectMembers;\r\n    ProjectNFT public projectNFT;\r\n\r\n    event TaskCreated(uint256 indexed taskId, string taskName, address[] indexed assignedTo, uint8 difficultyLevel);\r\n    event TaskCompleted(uint256 indexed taskId, string taskName);\r\n    event TaskApprovalRequested(uint256 indexed taskId);\r\n    event TaskApproved(uint256 indexed taskId);\r\n    event TaskDeleted(uint256 indexed taskId);\r\n    event MemberAdded(address indexed member);\r\n    event RewardClaimed(address indexed recipient, uint256 fragments);\r\n    event ProjectOwnershipTransferred(address indexed previousOwner, address indexed newOwner);\r\n\r\n    constructor() {\r\n        projectOwner = msg.sender;\r\n        projectNFT.nftId = 1;\r\n        projectNFT.nftName = \"Project NFT\";\r\n        addProjectMember(projectOwner, \"Kim\");\r\n    }\r\n\r\n    modifier onlyProjectOwner() {\r\n        require(msg.sender == projectOwner, \"Only the project owner can perform this action\");\r\n        _;\r\n    }\r\n\r\n    modifier onlyProjectMember() {\r\n        require(projectMembers[msg.sender].exists, \"Only project members can perform this action\");\r\n        _;\r\n    }\r\n\r\n    function addProjectMember(address _member, string memory _memberName) public onlyProjectOwner {\r\n        require(!projectMembers[_member].exists, \"Member already exists\");\r\n        projectMembers[_member] = ProjectMember(true, _memberName, 0);\r\n        memberAddresses.push(_member);\r\n        memberCount += 1;\r\n        emit MemberAdded(_member);\r\n    }\r\n\r\n    function handoverOwnership(address _newOwner) public onlyProjectOwner {\r\n        require(_newOwner != address(0), \"Invalid new owner address\");\r\n        require(_newOwner != projectOwner, \"New owner address must be different from the current owner\");\r\n\r\n        address previousOwner = projectOwner;\r\n        projectOwner = _newOwner;\r\n\r\n        emit ProjectOwnershipTransferred(previousOwner, _newOwner);\r\n    }\r\n\r\n    function createTask(string memory _taskName, address[] memory _assignedTo, uint8 _difficultyLevel) public onlyProjectOwner {\r\n        taskCount++;\r\n        tasks[taskCount] = Task(taskCount, _taskName, _assignedTo, false, false, _difficultyLevel);\r\n        emit TaskCreated(taskCount, _taskName, _assignedTo, _difficultyLevel);\r\n    }\r\n\r\n    function requestTaskCompletion(uint256 _taskId) public onlyProjectMember {\r\n        Task storage task = tasks[_taskId];\r\n        require(task.taskId != 0, \"Task does not exist\");\r\n        require(isAssignedToTask(task.assignedTo, msg.sender), \"You are not assigned to this task\");\r\n        require(!task.completed, \"Task is already completed\");\r\n        require(!task.approvalRequested, \"Approval for task completion has already been requested\");\r\n\r\n        task.approvalRequested = true;\r\n        emit TaskApprovalRequested(_taskId);\r\n    }\r\n\r\n    function approveTaskCompletion(uint256 _taskId) public onlyProjectOwner {\r\n        Task storage task = tasks[_taskId];\r\n        require(task.taskId != 0, \"Task does not exist\");\r\n        require(task.approvalRequested, \"Task completion has not been requested\");\r\n        require(!task.completed, \"Task is already completed\");\r\n\r\n        task.completed = true;\r\n        task.approvalRequested = false;\r\n        emit TaskCompleted(_taskId, task.taskName);\r\n\r\n        uint256 rewardFragments = calculateRewardFragments(task.difficultyLevel);\r\n        distributeRewards(task.assignedTo, rewardFragments);\r\n    }\r\n\r\n    function deleteTask(uint256 _taskId) public onlyProjectOwner {\r\n        Task storage task = tasks[_taskId];\r\n        require(task.taskId != 0, \"Task does not exist\");\r\n\r\n        delete tasks[_taskId];\r\n        emit TaskDeleted(_taskId);\r\n    }\r\n\r\n    function calculateRewardFragments(uint8 _difficultyLevel) internal pure returns (uint256) {\r\n        require(_difficultyLevel >= 1 && _difficultyLevel <= 5, \"Invalid difficulty level\");\r\n        return 2**(_difficultyLevel-1);\r\n    }\r\n\r\n    function distributeRewards(address[] memory _recipients, uint256 _rewardFragments) internal {\r\n        projectNFT.totalFragmentsAwarded += _rewardFragments*_recipients.length;\r\n        for (uint256 i = 0; i < _recipients.length; i++) {\r\n            address recipient = _recipients[i];\r\n            projectMembers[recipient].fragmentsEarned += _rewardFragments;\r\n            emit RewardClaimed(recipient, _rewardFragments);\r\n        }\r\n    }\r\n\r\n    function isAssignedToTask(address[] memory _assignedTo, address _address) internal pure returns (bool) {\r\n        for (uint256 i = 0; i < _assignedTo.length; i++) {\r\n            if (_assignedTo[i] == _address) {\r\n                return true;\r\n            }\r\n        }\r\n        return false;\r\n    }\r\n\r\n    function getTotalFragments() public view returns (uint256) {\r\n        return projectNFT.totalFragmentsAwarded;\r\n    }\r\n\r\n    function getOwnedFragments(address _user) public view returns (uint256) {\r\n        return projectMembers[_user].fragmentsEarned;\r\n    }    \r\n    \r\n    function getCompletedTasks() public view returns (uint256[] memory) {\r\n        uint256[] memory completedTaskIds = new uint256[](taskCount);\r\n        uint256 completedCount = 0;\r\n\r\n        for (uint256 i = 1; i <= taskCount; i++) {\r\n            if (tasks[i].completed) {\r\n                completedTaskIds[completedCount] = tasks[i].taskId;\r\n                completedCount++;\r\n            }\r\n        }\r\n\r\n        // Resize the array to remove unused elements\r\n        assembly {\r\n            mstore(completedTaskIds, completedCount)\r\n        }\r\n\r\n        return completedTaskIds;\r\n    }\r\n\r\n    function getPendingTasks() public view returns (uint256[] memory) {\r\n        uint256[] memory pendingTaskIds = new uint256[](taskCount);\r\n        uint256 pendingCount = 0;\r\n\r\n        for (uint256 i = 1; i <= taskCount; i++) {\r\n            if (!tasks[i].completed) {\r\n                pendingTaskIds[pendingCount] = tasks[i].taskId;\r\n                pendingCount++;\r\n            }\r\n        }\r\n\r\n        // Resize the array to remove unused elements\r\n        assembly {\r\n            mstore(pendingTaskIds, pendingCount)\r\n        }\r\n\r\n        return pendingTaskIds;\r\n    }\r\n}\r\n",
  "sourcePath": "D:\\School\\2023 Spring\\web3-proj\\contracts\\contracts\\ProjectManagement.sol",
  "compiler": {
    "name": "solc",
    "version": "0.8.15+commit.e14f2714.Emscripten.clang"
  },
  "schemaVersion": "3.4.14",
  "updatedAt": "2023-05-30T07:01:01.886Z",
  "networkType": "ethereum",
  "devdoc": {
    "kind": "dev",
    "methods": {},
    "version": 1
  },
  "userdoc": {
    "kind": "user",
    "methods": {},
    "version": 1
  }
}