{
  "contractName": "ProjectManagement",
  "abi": [
    {
      "inputs": [],
      "stateMutability": "nonpayable",
      "type": "constructor"
    },
    {
      "anonymous": false,
      "inputs": [
        {
          "indexed": true,
          "internalType": "address",
          "name": "member",
          "type": "address"
        }
      ],
      "name": "MemberAdded",
      "type": "event"
    },
    {
      "anonymous": false,
      "inputs": [
        {
          "indexed": true,
          "internalType": "address",
          "name": "recipient",
          "type": "address"
        },
        {
          "indexed": false,
          "internalType": "uint256",
          "name": "fragments",
          "type": "uint256"
        }
      ],
      "name": "RewardClaimed",
      "type": "event"
    },
    {
      "anonymous": false,
      "inputs": [
        {
          "indexed": true,
          "internalType": "uint256",
          "name": "taskId",
          "type": "uint256"
        }
      ],
      "name": "TaskApprovalRequested",
      "type": "event"
    },
    {
      "anonymous": false,
      "inputs": [
        {
          "indexed": true,
          "internalType": "uint256",
          "name": "taskId",
          "type": "uint256"
        }
      ],
      "name": "TaskApproved",
      "type": "event"
    },
    {
      "anonymous": false,
      "inputs": [
        {
          "indexed": true,
          "internalType": "uint256",
          "name": "taskId",
          "type": "uint256"
        },
        {
          "indexed": false,
          "internalType": "string",
          "name": "taskName",
          "type": "string"
        }
      ],
      "name": "TaskCompleted",
      "type": "event"
    },
    {
      "anonymous": false,
      "inputs": [
        {
          "indexed": true,
          "internalType": "uint256",
          "name": "taskId",
          "type": "uint256"
        },
        {
          "indexed": false,
          "internalType": "string",
          "name": "taskName",
          "type": "string"
        },
        {
          "indexed": true,
          "internalType": "address[]",
          "name": "assignedTo",
          "type": "address[]"
        },
        {
          "indexed": false,
          "internalType": "uint8",
          "name": "difficultyLevel",
          "type": "uint8"
        }
      ],
      "name": "TaskCreated",
      "type": "event"
    },
    {
      "anonymous": false,
      "inputs": [
        {
          "indexed": true,
          "internalType": "uint256",
          "name": "taskId",
          "type": "uint256"
        }
      ],
      "name": "TaskDeleted",
      "type": "event"
    },
    {
      "inputs": [
        {
          "internalType": "address",
          "name": "",
          "type": "address"
        }
      ],
      "name": "projectMembers",
      "outputs": [
        {
          "internalType": "bool",
          "name": "exists",
          "type": "bool"
        },
        {
          "internalType": "uint256",
          "name": "fragmentsEarned",
          "type": "uint256"
        }
      ],
      "stateMutability": "view",
      "type": "function",
      "constant": true
    },
    {
      "inputs": [],
      "name": "projectNFT",
      "outputs": [
        {
          "internalType": "uint256",
          "name": "nftId",
          "type": "uint256"
        },
        {
          "internalType": "string",
          "name": "nftName",
          "type": "string"
        },
        {
          "internalType": "uint256",
          "name": "totalFragmentsAwarded",
          "type": "uint256"
        }
      ],
      "stateMutability": "view",
      "type": "function",
      "constant": true
    },
    {
      "inputs": [],
      "name": "projectOwner",
      "outputs": [
        {
          "internalType": "address",
          "name": "",
          "type": "address"
        }
      ],
      "stateMutability": "view",
      "type": "function",
      "constant": true
    },
    {
      "inputs": [],
      "name": "taskCount",
      "outputs": [
        {
          "internalType": "uint256",
          "name": "",
          "type": "uint256"
        }
      ],
      "stateMutability": "view",
      "type": "function",
      "constant": true
    },
    {
      "inputs": [
        {
          "internalType": "uint256",
          "name": "",
          "type": "uint256"
        }
      ],
      "name": "tasks",
      "outputs": [
        {
          "internalType": "uint256",
          "name": "taskId",
          "type": "uint256"
        },
        {
          "internalType": "string",
          "name": "taskName",
          "type": "string"
        },
        {
          "internalType": "bool",
          "name": "completed",
          "type": "bool"
        },
        {
          "internalType": "bool",
          "name": "approvalRequested",
          "type": "bool"
        },
        {
          "internalType": "uint8",
          "name": "difficultyLevel",
          "type": "uint8"
        }
      ],
      "stateMutability": "view",
      "type": "function",
      "constant": true
    },
    {
      "inputs": [
        {
          "internalType": "address",
          "name": "_member",
          "type": "address"
        }
      ],
      "name": "addProjectMember",
      "outputs": [],
      "stateMutability": "nonpayable",
      "type": "function"
    },
    {
      "inputs": [
        {
          "internalType": "string",
          "name": "_taskName",
          "type": "string"
        },
        {
          "internalType": "address[]",
          "name": "_assignedTo",
          "type": "address[]"
        },
        {
          "internalType": "uint8",
          "name": "_difficultyLevel",
          "type": "uint8"
        }
      ],
      "name": "createTask",
      "outputs": [],
      "stateMutability": "nonpayable",
      "type": "function"
    },
    {
      "inputs": [
        {
          "internalType": "uint256",
          "name": "_taskId",
          "type": "uint256"
        }
      ],
      "name": "requestTaskCompletion",
      "outputs": [],
      "stateMutability": "nonpayable",
      "type": "function"
    },
    {
      "inputs": [
        {
          "internalType": "uint256",
          "name": "_taskId",
          "type": "uint256"
        }
      ],
      "name": "approveTaskCompletion",
      "outputs": [],
      "stateMutability": "nonpayable",
      "type": "function"
    },
    {
      "inputs": [
        {
          "internalType": "uint256",
          "name": "_taskId",
          "type": "uint256"
        }
      ],
      "name": "deleteTask",
      "outputs": [],
      "stateMutability": "nonpayable",
      "type": "function"
    },
    {
      "inputs": [],
      "name": "getTotalFragments",
      "outputs": [
        {
          "internalType": "uint256",
          "name": "",
          "type": "uint256"
        }
      ],
      "stateMutability": "view",
      "type": "function",
      "constant": true
    },
    {
      "inputs": [
        {
          "internalType": "address",
          "name": "_user",
          "type": "address"
        }
      ],
      "name": "getOwnedFragments",
      "outputs": [
        {
          "internalType": "uint256",
          "name": "",
          "type": "uint256"
        }
      ],
      "stateMutability": "view",
      "type": "function",
      "constant": true
    }
  ],
  "bytecode": "0x60806040523480156200001157600080fd5b5033600160006101000a81548173ffffffffffffffffffffffffffffffffffffffff021916908373ffffffffffffffffffffffffffffffffffffffff16021790555060016004600001819055506040518060400160405280600b81526020017f50726f6a656374204e465400000000000000000000000000000000000000000081525060046001019081620000a791906200054c565b50620000db600160009054906101000a900473ffffffffffffffffffffffffffffffffffffffff16620000e160201b60201c565b6200074e565b600160009054906101000a900473ffffffffffffffffffffffffffffffffffffffff1673ffffffffffffffffffffffffffffffffffffffff163373ffffffffffffffffffffffffffffffffffffffff161462000174576040517f08c379a00000000000000000000000000000000000000000000000000000000081526004016200016b90620006ba565b60405180910390fd5b600360008273ffffffffffffffffffffffffffffffffffffffff1673ffffffffffffffffffffffffffffffffffffffff16815260200190815260200160002060000160009054906101000a900460ff161562000207576040517f08c379a0000000000000000000000000000000000000000000000000000000008152600401620001fe906200072c565b60405180910390fd5b60405180604001604052806001151581526020016000815250600360008373ffffffffffffffffffffffffffffffffffffffff1673ffffffffffffffffffffffffffffffffffffffff16815260200190815260200160002060008201518160000160006101000a81548160ff021916908315150217905550602082015181600101559050508073ffffffffffffffffffffffffffffffffffffffff167fb251eb052afc73ffd02ffe85ad79990a8b3fed60d76dbc2fa2fdd7123dffd91460405160405180910390a250565b600081519050919050565b7f4e487b7100000000000000000000000000000000000000000000000000000000600052604160045260246000fd5b7f4e487b7100000000000000000000000000000000000000000000000000000000600052602260045260246000fd5b600060028204905060018216806200035457607f821691505b6020821081036200036a57620003696200030c565b5b50919050565b60008190508160005260206000209050919050565b60006020601f8301049050919050565b600082821b905092915050565b600060088302620003d47fffffffffffffffffffffffffffffffffffffffffffffffffffffffffffffffff8262000395565b620003e0868362000395565b95508019841693508086168417925050509392505050565b6000819050919050565b6000819050919050565b60006200042d620004276200042184620003f8565b62000402565b620003f8565b9050919050565b6000819050919050565b62000449836200040c565b62000461620004588262000434565b848454620003a2565b825550505050565b600090565b6200047862000469565b620004858184846200043e565b505050565b5b81811015620004ad57620004a16000826200046e565b6001810190506200048b565b5050565b601f821115620004fc57620004c68162000370565b620004d18462000385565b81016020851015620004e1578190505b620004f9620004f08562000385565b8301826200048a565b50505b505050565b600082821c905092915050565b6000620005216000198460080262000501565b1980831691505092915050565b60006200053c83836200050e565b9150826002028217905092915050565b6200055782620002d2565b67ffffffffffffffff811115620005735762000572620002dd565b5b6200057f82546200033b565b6200058c828285620004b1565b600060209050601f831160018114620005c45760008415620005af578287015190505b620005bb85826200052e565b8655506200062b565b601f198416620005d48662000370565b60005b82811015620005fe57848901518255600182019150602085019450602081019050620005d7565b868310156200061e57848901516200061a601f8916826200050e565b8355505b6001600288020188555050505b505050505050565b600082825260208201905092915050565b7f4f6e6c79207468652070726f6a656374206f776e65722063616e20706572666f60008201527f726d207468697320616374696f6e000000000000000000000000000000000000602082015250565b6000620006a2602e8362000633565b9150620006af8262000644565b604082019050919050565b60006020820190508181036000830152620006d58162000693565b9050919050565b7f4d656d62657220616c7265616479206578697374730000000000000000000000600082015250565b60006200071460158362000633565b91506200072182620006dc565b602082019050919050565b60006020820190508181036000830152620007478162000705565b9050919050565b61245a806200075e6000396000f3fe608060405234801561001057600080fd5b50600436106100b45760003560e01c8063a2fd691711610071578063a2fd6917146101a4578063a4475ce4146101c4578063acc8d4fe146101e2578063b6c786d3146101fe578063b6cb58a51461021a578063d61d6c0f14610238576100b4565b80632127fd93146100b9578063560f3192146100ea57806362d3c7ba146101065780637484bed61461012257806380195fca146101525780638d97767214610170575b600080fd5b6100d360048036038101906100ce91906112ff565b610254565b6040516100e1929190611360565b60405180910390f35b61010460048036038101906100ff91906113b5565b610285565b005b610120600480360381019061011b9190611629565b61041e565b005b61013c600480360381019061013791906112ff565b610609565b60405161014991906116b4565b60405180910390f35b61015a610655565b60405161016791906116b4565b60405180910390f35b61018a600480360381019061018591906113b5565b610662565b60405161019b959493929190611766565b60405180910390f35b6101ac610747565b6040516101bb939291906117c0565b60405180910390f35b6101cc6107e7565b6040516101d9919061180d565b60405180910390f35b6101fc60048036038101906101f791906113b5565b61080d565b005b610218600480360381019061021391906112ff565b610abd565b005b610222610ca8565b60405161022f91906116b4565b60405180910390f35b610252600480360381019061024d91906113b5565b610cae565b005b60036020528060005260406000206000915090508060000160009054906101000a900460ff16908060010154905082565b600160009054906101000a900473ffffffffffffffffffffffffffffffffffffffff1673ffffffffffffffffffffffffffffffffffffffff163373ffffffffffffffffffffffffffffffffffffffff1614610315576040517f08c379a000000000000000000000000000000000000000000000000000000000815260040161030c9061189a565b60405180910390fd5b60006002600083815260200190815260200160002090506000816000015403610373576040517f08c379a000000000000000000000000000000000000000000000000000000000815260040161036a90611906565b60405180910390fd5b6002600083815260200190815260200160002060008082016000905560018201600061039f9190611185565b6002820160006103af91906111c5565b6003820160006101000a81549060ff02191690556003820160016101000a81549060ff02191690556003820160026101000a81549060ff02191690555050817fd078b251d950cc55c44340be1db732337ef4939a76e1367ee271ad2cb19c46af60405160405180910390a25050565b600160009054906101000a900473ffffffffffffffffffffffffffffffffffffffff1673ffffffffffffffffffffffffffffffffffffffff163373ffffffffffffffffffffffffffffffffffffffff16146104ae576040517f08c379a00000000000000000000000000000000000000000000000000000000081526004016104a59061189a565b60405180910390fd5b6000808154809291906104c090611955565b91905055506040518060c0016040528060005481526020018481526020018381526020016000151581526020016000151581526020018260ff1681525060026000805481526020019081526020016000206000820151816000015560208201518160010190816105309190611ba9565b50604082015181600201908051906020019061054d9291906111e6565b5060608201518160030160006101000a81548160ff02191690831515021790555060808201518160030160016101000a81548160ff02191690831515021790555060a08201518160030160026101000a81548160ff021916908360ff160217905550905050816040516105c09190611d33565b60405180910390206000547f04e80ce68755d6acb3d694d6fb429a92e07bebb64d074d014684fa024b2acea185846040516105fc929190611d4a565b60405180910390a3505050565b6000600360008373ffffffffffffffffffffffffffffffffffffffff1673ffffffffffffffffffffffffffffffffffffffff168152602001908152602001600020600101549050919050565b6000600460020154905090565b600260205280600052604060002060009150905080600001549080600101805461068b906119cc565b80601f01602080910402602001604051908101604052809291908181526020018280546106b7906119cc565b80156107045780601f106106d957610100808354040283529160200191610704565b820191906000526020600020905b8154815290600101906020018083116106e757829003601f168201915b5050505050908060030160009054906101000a900460ff16908060030160019054906101000a900460ff16908060030160029054906101000a900460ff16905085565b600480600001549080600101805461075e906119cc565b80601f016020809104026020016040519081016040528092919081815260200182805461078a906119cc565b80156107d75780601f106107ac576101008083540402835291602001916107d7565b820191906000526020600020905b8154815290600101906020018083116107ba57829003601f168201915b5050505050908060020154905083565b600160009054906101000a900473ffffffffffffffffffffffffffffffffffffffff1681565b600360003373ffffffffffffffffffffffffffffffffffffffff1673ffffffffffffffffffffffffffffffffffffffff16815260200190815260200160002060000160009054906101000a900460ff1661089c576040517f08c379a000000000000000000000000000000000000000000000000000000000815260040161089390611dec565b60405180910390fd5b600060026000838152602001908152602001600020905060008160000154036108fa576040517f08c379a00000000000000000000000000000000000000000000000000000000081526004016108f190611906565b60405180910390fd5b61098c8160020180548060200260200160405190810160405280929190818152602001828054801561098157602002820191906000526020600020905b8160009054906101000a900473ffffffffffffffffffffffffffffffffffffffff1673ffffffffffffffffffffffffffffffffffffffff1681526020019060010190808311610937575b505050505033610f85565b6109cb576040517f08c379a00000000000000000000000000000000000000000000000000000000081526004016109c290611e7e565b60405180910390fd5b8060030160009054906101000a900460ff1615610a1d576040517f08c379a0000000000000000000000000000000000000000000000000000000008152600401610a1490611eea565b60405180910390fd5b8060030160019054906101000a900460ff1615610a6f576040517f08c379a0000000000000000000000000000000000000000000000000000000008152600401610a6690611f7c565b60405180910390fd5b60018160030160016101000a81548160ff021916908315150217905550817fc4cf761fd63c11408ed8de43ecb8479c12cc5b54ae63d9245fda4660980e84f360405160405180910390a25050565b600160009054906101000a900473ffffffffffffffffffffffffffffffffffffffff1673ffffffffffffffffffffffffffffffffffffffff163373ffffffffffffffffffffffffffffffffffffffff1614610b4d576040517f08c379a0000000000000000000000000000000000000000000000000000000008152600401610b449061189a565b60405180910390fd5b600360008273ffffffffffffffffffffffffffffffffffffffff1673ffffffffffffffffffffffffffffffffffffffff16815260200190815260200160002060000160009054906101000a900460ff1615610bdd576040517f08c379a0000000000000000000000000000000000000000000000000000000008152600401610bd490611fe8565b60405180910390fd5b60405180604001604052806001151581526020016000815250600360008373ffffffffffffffffffffffffffffffffffffffff1673ffffffffffffffffffffffffffffffffffffffff16815260200190815260200160002060008201518160000160006101000a81548160ff021916908315150217905550602082015181600101559050508073ffffffffffffffffffffffffffffffffffffffff167fb251eb052afc73ffd02ffe85ad79990a8b3fed60d76dbc2fa2fdd7123dffd91460405160405180910390a250565b60005481565b600160009054906101000a900473ffffffffffffffffffffffffffffffffffffffff1673ffffffffffffffffffffffffffffffffffffffff163373ffffffffffffffffffffffffffffffffffffffff1614610d3e576040517f08c379a0000000000000000000000000000000000000000000000000000000008152600401610d359061189a565b60405180910390fd5b60006002600083815260200190815260200160002090506000816000015403610d9c576040517f08c379a0000000000000000000000000000000000000000000000000000000008152600401610d9390611906565b60405180910390fd5b8060030160019054906101000a900460ff16610ded576040517f08c379a0000000000000000000000000000000000000000000000000000000008152600401610de49061207a565b60405180910390fd5b8060030160009054906101000a900460ff1615610e3f576040517f08c379a0000000000000000000000000000000000000000000000000000000008152600401610e3690611eea565b60405180910390fd5b60018160030160006101000a81548160ff02191690831515021790555060008160030160016101000a81548160ff021916908315150217905550817f7e6ffc29fe63759579d96a0457a8f2e08339aca345bd469f59dc2e61f82a5aeb82600101604051610eac919061211e565b60405180910390a26000610ed08260030160029054906101000a900460ff1661100c565b9050610f6482600201805480602002602001604051908101604052809291908181526020018280548015610f5957602002820191906000526020600020905b8160009054906101000a900473ffffffffffffffffffffffffffffffffffffffff1673ffffffffffffffffffffffffffffffffffffffff1681526020019060010190808311610f0f575b505050505082611088565b8060046002016000828254610f799190612140565b92505081905550505050565b600080600090505b8351811015611000578273ffffffffffffffffffffffffffffffffffffffff16848281518110610fc057610fbf612196565b5b602002602001015173ffffffffffffffffffffffffffffffffffffffff1603610fed576001915050611006565b8080610ff890611955565b915050610f8d565b50600090505b92915050565b600060018260ff1610158015611026575060058260ff1611155b611065576040517f08c379a000000000000000000000000000000000000000000000000000000000815260040161105c90612211565b60405180910390fd5b60026001836110749190612231565b61107e9190612398565b60ff169050919050565b600082518261109791906123f3565b905060005b835181101561117f5760008482815181106110ba576110b9612196565b5b6020026020010151905082600360008373ffffffffffffffffffffffffffffffffffffffff1673ffffffffffffffffffffffffffffffffffffffff16815260200190815260200160002060010160008282546111169190612140565b925050819055508073ffffffffffffffffffffffffffffffffffffffff167f106f923f993c2149d49b4255ff723acafa1f2d94393f561d3eda32ae348f72418460405161116391906116b4565b60405180910390a250808061117790611955565b91505061109c565b50505050565b508054611191906119cc565b6000825580601f106111a357506111c2565b601f0160209004906000526020600020908101906111c19190611270565b5b50565b50805460008255906000526020600020908101906111e39190611270565b50565b82805482825590600052602060002090810192821561125f579160200282015b8281111561125e5782518260006101000a81548173ffffffffffffffffffffffffffffffffffffffff021916908373ffffffffffffffffffffffffffffffffffffffff16021790555091602001919060010190611206565b5b50905061126c9190611270565b5090565b5b80821115611289576000816000905550600101611271565b5090565b6000604051905090565b600080fd5b600080fd5b600073ffffffffffffffffffffffffffffffffffffffff82169050919050565b60006112cc826112a1565b9050919050565b6112dc816112c1565b81146112e757600080fd5b50565b6000813590506112f9816112d3565b92915050565b60006020828403121561131557611314611297565b5b6000611323848285016112ea565b91505092915050565b60008115159050919050565b6113418161132c565b82525050565b6000819050919050565b61135a81611347565b82525050565b60006040820190506113756000830185611338565b6113826020830184611351565b9392505050565b61139281611347565b811461139d57600080fd5b50565b6000813590506113af81611389565b92915050565b6000602082840312156113cb576113ca611297565b5b60006113d9848285016113a0565b91505092915050565b600080fd5b600080fd5b6000601f19601f8301169050919050565b7f4e487b7100000000000000000000000000000000000000000000000000000000600052604160045260246000fd5b611435826113ec565b810181811067ffffffffffffffff82111715611454576114536113fd565b5b80604052505050565b600061146761128d565b9050611473828261142c565b919050565b600067ffffffffffffffff821115611493576114926113fd565b5b61149c826113ec565b9050602081019050919050565b82818337600083830152505050565b60006114cb6114c684611478565b61145d565b9050828152602081018484840111156114e7576114e66113e7565b5b6114f28482856114a9565b509392505050565b600082601f83011261150f5761150e6113e2565b5b813561151f8482602086016114b8565b91505092915050565b600067ffffffffffffffff821115611543576115426113fd565b5b602082029050602081019050919050565b600080fd5b600061156c61156784611528565b61145d565b9050808382526020820190506020840283018581111561158f5761158e611554565b5b835b818110156115b857806115a488826112ea565b845260208401935050602081019050611591565b5050509392505050565b600082601f8301126115d7576115d66113e2565b5b81356115e7848260208601611559565b91505092915050565b600060ff82169050919050565b611606816115f0565b811461161157600080fd5b50565b600081359050611623816115fd565b92915050565b60008060006060848603121561164257611641611297565b5b600084013567ffffffffffffffff8111156116605761165f61129c565b5b61166c868287016114fa565b935050602084013567ffffffffffffffff81111561168d5761168c61129c565b5b611699868287016115c2565b92505060406116aa86828701611614565b9150509250925092565b60006020820190506116c96000830184611351565b92915050565b600081519050919050565b600082825260208201905092915050565b60005b838110156117095780820151818401526020810190506116ee565b83811115611718576000848401525b50505050565b6000611729826116cf565b61173381856116da565b93506117438185602086016116eb565b61174c816113ec565b840191505092915050565b611760816115f0565b82525050565b600060a08201905061177b6000830188611351565b818103602083015261178d818761171e565b905061179c6040830186611338565b6117a96060830185611338565b6117b66080830184611757565b9695505050505050565b60006060820190506117d56000830186611351565b81810360208301526117e7818561171e565b90506117f66040830184611351565b949350505050565b611807816112c1565b82525050565b600060208201905061182260008301846117fe565b92915050565b7f4f6e6c79207468652070726f6a656374206f776e65722063616e20706572666f60008201527f726d207468697320616374696f6e000000000000000000000000000000000000602082015250565b6000611884602e836116da565b915061188f82611828565b604082019050919050565b600060208201905081810360008301526118b381611877565b9050919050565b7f5461736b20646f6573206e6f7420657869737400000000000000000000000000600082015250565b60006118f06013836116da565b91506118fb826118ba565b602082019050919050565b6000602082019050818103600083015261191f816118e3565b9050919050565b7f4e487b7100000000000000000000000000000000000000000000000000000000600052601160045260246000fd5b600061196082611347565b91507fffffffffffffffffffffffffffffffffffffffffffffffffffffffffffffffff820361199257611991611926565b5b600182019050919050565b7f4e487b7100000000000000000000000000000000000000000000000000000000600052602260045260246000fd5b600060028204905060018216806119e457607f821691505b6020821081036119f7576119f661199d565b5b50919050565b60008190508160005260206000209050919050565b60006020601f8301049050919050565b600082821b905092915050565b600060088302611a5f7fffffffffffffffffffffffffffffffffffffffffffffffffffffffffffffffff82611a22565b611a698683611a22565b95508019841693508086168417925050509392505050565b6000819050919050565b6000611aa6611aa1611a9c84611347565b611a81565b611347565b9050919050565b6000819050919050565b611ac083611a8b565b611ad4611acc82611aad565b848454611a2f565b825550505050565b600090565b611ae9611adc565b611af4818484611ab7565b505050565b5b81811015611b1857611b0d600082611ae1565b600181019050611afa565b5050565b601f821115611b5d57611b2e816119fd565b611b3784611a12565b81016020851015611b46578190505b611b5a611b5285611a12565b830182611af9565b50505b505050565b600082821c905092915050565b6000611b8060001984600802611b62565b1980831691505092915050565b6000611b998383611b6f565b9150826002028217905092915050565b611bb2826116cf565b67ffffffffffffffff811115611bcb57611bca6113fd565b5b611bd582546119cc565b611be0828285611b1c565b600060209050601f831160018114611c135760008415611c01578287015190505b611c0b8582611b8d565b865550611c73565b601f198416611c21866119fd565b60005b82811015611c4957848901518255600182019150602085019450602081019050611c24565b86831015611c665784890151611c62601f891682611b6f565b8355505b6001600288020188555050505b505050505050565b600081519050919050565b600081905092915050565b6000819050602082019050919050565b611caa816112c1565b82525050565b6000611cbc8383611ca1565b60208301905092915050565b6000602082019050919050565b6000611ce082611c7b565b611cea8185611c86565b9350611cf583611c91565b8060005b83811015611d26578151611d0d8882611cb0565b9750611d1883611cc8565b925050600181019050611cf9565b5085935050505092915050565b6000611d3f8284611cd5565b915081905092915050565b60006040820190508181036000830152611d64818561171e565b9050611d736020830184611757565b9392505050565b7f4f6e6c792070726f6a656374206d656d626572732063616e20706572666f726d60008201527f207468697320616374696f6e0000000000000000000000000000000000000000602082015250565b6000611dd6602c836116da565b9150611de182611d7a565b604082019050919050565b60006020820190508181036000830152611e0581611dc9565b9050919050565b7f596f7520617265206e6f742061737369676e656420746f20746869732074617360008201527f6b00000000000000000000000000000000000000000000000000000000000000602082015250565b6000611e686021836116da565b9150611e7382611e0c565b604082019050919050565b60006020820190508181036000830152611e9781611e5b565b9050919050565b7f5461736b20697320616c726561647920636f6d706c6574656400000000000000600082015250565b6000611ed46019836116da565b9150611edf82611e9e565b602082019050919050565b60006020820190508181036000830152611f0381611ec7565b9050919050565b7f417070726f76616c20666f72207461736b20636f6d706c6574696f6e2068617360008201527f20616c7265616479206265656e20726571756573746564000000000000000000602082015250565b6000611f666037836116da565b9150611f7182611f0a565b604082019050919050565b60006020820190508181036000830152611f9581611f59565b9050919050565b7f4d656d62657220616c7265616479206578697374730000000000000000000000600082015250565b6000611fd26015836116da565b9150611fdd82611f9c565b602082019050919050565b6000602082019050818103600083015261200181611fc5565b9050919050565b7f5461736b20636f6d706c6574696f6e20686173206e6f74206265656e2072657160008201527f7565737465640000000000000000000000000000000000000000000000000000602082015250565b60006120646026836116da565b915061206f82612008565b604082019050919050565b6000602082019050818103600083015261209381612057565b9050919050565b600081546120a7816119cc565b6120b181866116da565b945060018216600081146120cc57600181146120e257612115565b60ff198316865281151560200286019350612115565b6120eb856119fd565b60005b8381101561210d578154818901526001820191506020810190506120ee565b808801955050505b50505092915050565b60006020820190508181036000830152612138818461209a565b905092915050565b600061214b82611347565b915061215683611347565b9250827fffffffffffffffffffffffffffffffffffffffffffffffffffffffffffffffff0382111561218b5761218a611926565b5b828201905092915050565b7f4e487b7100000000000000000000000000000000000000000000000000000000600052603260045260246000fd5b7f496e76616c696420646966666963756c7479206c6576656c0000000000000000600082015250565b60006121fb6018836116da565b9150612206826121c5565b602082019050919050565b6000602082019050818103600083015261222a816121ee565b9050919050565b600061223c826115f0565b9150612247836115f0565b92508282101561225a57612259611926565b5b828203905092915050565b60008160011c9050919050565b6000808291508390505b60018511156122bc5780860481111561229857612297611926565b5b60018516156122a75780820291505b80810290506122b585612265565b945061227c565b94509492505050565b6000826122d55760019050612391565b816122e35760009050612391565b81600181146122f9576002811461230357612332565b6001915050612391565b60ff84111561231557612314611926565b5b8360020a91508482111561232c5761232b611926565b5b50612391565b5060208310610133831016604e8410600b84101617156123675782820a90508381111561236257612361611926565b5b612391565b6123748484846001612272565b9250905081840481111561238b5761238a611926565b5b81810290505b9392505050565b60006123a3826115f0565b91506123ae836115f0565b92506123bc60ff84846122c5565b905092915050565b7f4e487b7100000000000000000000000000000000000000000000000000000000600052601260045260246000fd5b60006123fe82611347565b915061240983611347565b925082612419576124186123c4565b5b82820490509291505056fea26469706673582212200eb5da2172a5d13923e386a4db7422b4ca610f4e28986946b3146c2d75220fae64736f6c634300080f0033",
  "immutableReferences": {},
  "source": "// SPDX-License-Identifier: MIT \r\npragma solidity ^0.8.0;\r\n\r\ncontract ProjectManagement {\r\n    struct Task {\r\n        uint256 taskId;\r\n        string taskName;\r\n        address[] assignedTo;\r\n        bool completed;\r\n        bool approvalRequested;\r\n        uint8 difficultyLevel;\r\n    }\r\n\r\n    struct ProjectNFT {\r\n        uint256 nftId;\r\n        string nftName;\r\n        uint256 totalFragmentsAwarded;\r\n    }\r\n\r\n    struct ProjectMember {\r\n        bool exists;\r\n        uint256 fragmentsEarned;\r\n    }\r\n\r\n    uint256 public taskCount;\r\n    address public projectOwner;\r\n    mapping(uint256 => Task) public tasks;\r\n    mapping(address => ProjectMember) public projectMembers;\r\n    ProjectNFT public projectNFT;\r\n\r\n    event TaskCreated(uint256 indexed taskId, string taskName, address[] indexed assignedTo, uint8 difficultyLevel);\r\n    event TaskCompleted(uint256 indexed taskId, string taskName);\r\n    event TaskApprovalRequested(uint256 indexed taskId);\r\n    event TaskApproved(uint256 indexed taskId);\r\n    event TaskDeleted(uint256 indexed taskId);\r\n    event MemberAdded(address indexed member);\r\n    event RewardClaimed(address indexed recipient, uint256 fragments);\r\n\r\n    constructor() {\r\n        projectOwner = msg.sender;\r\n        projectNFT.nftId = 1;\r\n        projectNFT.nftName = \"Project NFT\";\r\n        addProjectMember(projectOwner);\r\n    }\r\n\r\n    modifier onlyProjectOwner() {\r\n        require(msg.sender == projectOwner, \"Only the project owner can perform this action\");\r\n        _;\r\n    }\r\n\r\n    modifier onlyProjectMember() {\r\n        require(projectMembers[msg.sender].exists, \"Only project members can perform this action\");\r\n        _;\r\n    }\r\n\r\n    function addProjectMember(address _member) public onlyProjectOwner {\r\n        require(!projectMembers[_member].exists, \"Member already exists\");\r\n        projectMembers[_member] = ProjectMember(true, 0);\r\n        emit MemberAdded(_member);\r\n    }\r\n\r\n    function createTask(string memory _taskName, address[] memory _assignedTo, uint8 _difficultyLevel) public onlyProjectOwner {\r\n        taskCount++;\r\n        tasks[taskCount] = Task(taskCount, _taskName, _assignedTo, false, false, _difficultyLevel);\r\n        emit TaskCreated(taskCount, _taskName, _assignedTo, _difficultyLevel);\r\n    }\r\n\r\n    function requestTaskCompletion(uint256 _taskId) public onlyProjectMember {\r\n        Task storage task = tasks[_taskId];\r\n        require(task.taskId != 0, \"Task does not exist\");\r\n        require(isAssignedToTask(task.assignedTo, msg.sender), \"You are not assigned to this task\");\r\n        require(!task.completed, \"Task is already completed\");\r\n        require(!task.approvalRequested, \"Approval for task completion has already been requested\");\r\n\r\n        task.approvalRequested = true;\r\n        emit TaskApprovalRequested(_taskId);\r\n    }\r\n\r\n    function approveTaskCompletion(uint256 _taskId) public onlyProjectOwner {\r\n        Task storage task = tasks[_taskId];\r\n        require(task.taskId != 0, \"Task does not exist\");\r\n        require(task.approvalRequested, \"Task completion has not been requested\");\r\n        require(!task.completed, \"Task is already completed\");\r\n\r\n        task.completed = true;\r\n        task.approvalRequested = false;\r\n        emit TaskCompleted(_taskId, task.taskName);\r\n\r\n        uint256 rewardFragments = calculateRewardFragments(task.difficultyLevel);\r\n        distributeRewards(task.assignedTo, rewardFragments);\r\n        projectNFT.totalFragmentsAwarded += rewardFragments;\r\n    }\r\n\r\n    function deleteTask(uint256 _taskId) public onlyProjectOwner {\r\n        Task storage task = tasks[_taskId];\r\n        require(task.taskId != 0, \"Task does not exist\");\r\n\r\n        delete tasks[_taskId];\r\n        emit TaskDeleted(_taskId);\r\n    }\r\n\r\n    function calculateRewardFragments(uint8 _difficultyLevel) internal pure returns (uint256) {\r\n        require(_difficultyLevel >= 1 && _difficultyLevel <= 5, \"Invalid difficulty level\");\r\n        return (_difficultyLevel-1)**2;\r\n    }\r\n\r\n    function distributeRewards(address[] memory _recipients, uint256 _rewardFragments) internal {\r\n        uint256 rewardAmount = _rewardFragments / _recipients.length;\r\n        for (uint256 i = 0; i < _recipients.length; i++) {\r\n            address recipient = _recipients[i];\r\n            projectMembers[recipient].fragmentsEarned += rewardAmount;\r\n            emit RewardClaimed(recipient, rewardAmount);\r\n        }\r\n    }\r\n\r\n    function isAssignedToTask(address[] memory _assignedTo, address _address) internal pure returns (bool) {\r\n        for (uint256 i = 0; i < _assignedTo.length; i++) {\r\n            if (_assignedTo[i] == _address) {\r\n                return true;\r\n            }\r\n        }\r\n        return false;\r\n    }\r\n\r\n    function getTotalFragments() public view returns (uint256) {\r\n        return projectNFT.totalFragmentsAwarded;\r\n    }\r\n\r\n    function getOwnedFragments(address _user) public view returns (uint256) {\r\n        return projectMembers[_user].fragmentsEarned;\r\n    }\r\n}\r\n",
  "sourcePath": "D:\\School\\2023 Spring\\web3-proj\\contracts\\contracts\\ProjectManagement.sol",
  "compiler": {
    "name": "solc",
    "version": "0.8.15+commit.e14f2714.Emscripten.clang"
  },
  "schemaVersion": "3.4.14",
  "updatedAt": "2023-05-29T11:49:44.584Z",
  "networkType": "ethereum",
  "devdoc": {
    "kind": "dev",
    "methods": {},
    "version": 1
  },
  "userdoc": {
    "kind": "user",
    "methods": {},
    "version": 1
  }
}